{
  "contractName": "Random",
  "abi": [
    {
      "inputs": [],
      "stateMutability": "nonpayable",
      "type": "constructor"
    },
    {
      "anonymous": false,
      "inputs": [
        {
          "indexed": false,
          "internalType": "string",
          "name": "description",
          "type": "string"
        }
      ],
      "name": "LogNewProvableQuery",
      "type": "event"
    },
    {
      "anonymous": false,
      "inputs": [
        {
          "indexed": false,
          "internalType": "uint256",
          "name": "randomNumber",
          "type": "uint256"
        }
      ],
      "name": "generatedRandomNumber",
      "type": "event"
    },
    {
      "inputs": [],
      "name": "latestNumber",
      "outputs": [
        {
          "internalType": "uint256",
          "name": "",
          "type": "uint256"
        }
      ],
      "stateMutability": "view",
      "type": "function"
    },
    {
      "inputs": [
        {
          "internalType": "bytes32",
          "name": "_myid",
          "type": "bytes32"
        },
        {
          "internalType": "string",
          "name": "_result",
          "type": "string"
        }
      ],
      "name": "__callback",
      "outputs": [],
      "stateMutability": "nonpayable",
      "type": "function"
    },
    {
      "inputs": [
        {
          "internalType": "bytes32",
          "name": "_myid",
          "type": "bytes32"
        },
        {
          "internalType": "string",
          "name": "_result",
          "type": "string"
        },
        {
          "internalType": "bytes",
          "name": "_proof",
          "type": "bytes"
        }
      ],
      "name": "__callback",
      "outputs": [],
      "stateMutability": "nonpayable",
      "type": "function"
    },
    {
      "inputs": [
        {
          "internalType": "string",
          "name": "_result",
          "type": "string"
        }
      ],
      "name": "__callback",
      "outputs": [],
      "stateMutability": "nonpayable",
      "type": "function"
    },
    {
      "inputs": [],
      "name": "testRandom",
      "outputs": [
        {
          "internalType": "bytes32",
          "name": "",
          "type": "bytes32"
        }
      ],
      "stateMutability": "nonpayable",
      "type": "function"
    }
  ],
  "bytecode": "0x608060405234801561001057600080fd5b50610546806100206000396000f3fe608060405234801561001057600080fd5b50600436106100575760003560e01c806327dc297e1461005c57806338bbfa5014610121578063dc34b0aa1461027d578063e1d8d66a1461029b578063fbddd14b14610356575b600080fd5b61011f6004803603604081101561007257600080fd5b81019080803590602001909291908035906020019064010000000081111561009957600080fd5b8201836020820111156100ab57600080fd5b803590602001918460018302840111640100000000831117156100cd57600080fd5b91908080601f016020809104026020016040519081016040528093929190818152602001838380828437600081840152601f19601f820116905080830192505050505050509192919290505050610374565b005b61027b6004803603606081101561013757600080fd5b81019080803590602001909291908035906020019064010000000081111561015e57600080fd5b82018360208201111561017057600080fd5b8035906020019184600183028401116401000000008311171561019257600080fd5b91908080601f016020809104026020016040519081016040528093929190818152602001838380828437600081840152601f19601f820116905080830192505050505050509192919290803590602001906401000000008111156101f557600080fd5b82018360208201111561020757600080fd5b8035906020019184600183028401116401000000008311171561022957600080fd5b91908080601f016020809104026020016040519081016040528093929190818152602001838380828437600081840152601f19601f8201169050808301925050505050505091929192905050506103b7565b005b6102856103da565b6040518082815260200191505060405180910390f35b610354600480360360208110156102b157600080fd5b81019080803590602001906401000000008111156102ce57600080fd5b8201836020820111156102e057600080fd5b8035906020019184600183028401116401000000008311171561030257600080fd5b91908080601f016020809104026020016040519081016040528093929190818152602001838380828437600081840152601f19601f8201169050808301925050505050505091929192905050506103e0565b005b61035e6104a5565b6040518082815260200191505060405180910390f35b6103b3828260006040519080825280601f01601f1916602001820160405280156103ad5781602001600182028038833980820191505090505b506103b7565b5050565b6000801b600360008060001b815260200190815260200160002081905550505050565b60055481565b60006002826040516020018082805190602001908083835b6020831061041b57805182526020820191506020810190506020830392506103f8565b6001836020036101000a0380198251168184511680821785525050505050509050019150506040516020818303038152906040528051906020012060001c8161046057fe5b069050806005819055507fc13d60fe9dffdb6908d2d446cd18134373a51db0738ee04f296eeb9128121cbc816040518082815260200191505060405180910390a15050565b6000807f746573743132330000000000000000000000000000000000000000000000000090506105096040518060400160405280600181526020017f31000000000000000000000000000000000000000000000000000000000000008152506103e0565b809150509056fea2646970667358221220bca10af3304d3617f2b1fa9bfae1409cc6b186567fc8fc2e96ffc982856272c564736f6c63430006020033",
  "source": "pragma solidity 0.6.2;\r\nimport \"./provableAPI.sol\";\r\n\r\ncontract Random is usingProvable {\r\n\r\n    uint256 constant NUM_RANDOM_BYTES_REQUESTED = 1;\r\n    uint256 public latestNumber;\r\n\r\n    event LogNewProvableQuery(string description);\r\n    event generatedRandomNumber(uint256 randomNumber);\r\n\r\n    constructor()\r\n        public\r\n    {\r\n        //update();\r\n    }\r\n    // try to map multiple games and multiple callbacks for multiple users playing games\r\n    // function  __callback(bytes32 _queryId, string memory _result, bytes memory _proof) public override(usingProvable){\r\n        function  __callback(string memory _result) public {\r\n        // require(msg.sender == provable_cbAddress(),\"Error\");\r\n        //tide queryId to user\r\n        uint256 randomNumber = uint256(keccak256(abi.encodePacked(_result))) % 2;\r\n        latestNumber = randomNumber;\r\n        emit generatedRandomNumber(randomNumber);\r\n    }\r\n\r\n    //function update()\r\n      //  public\r\n        //payable\r\n    //{\r\n      //  uint256 QUERY_EXECUTION_DELAY = 0;\r\n        //uint256 GAS_FOR_CALLBACK = 200000;\r\n        //unique id save it\r\n        //bytes32 queryId = provable_newRandomDSQuery(\r\n          //  QUERY_EXECUTION_DELAY,\r\n            //NUM_RANDOM_BYTES_REQUESTED,\r\n            //GAS_FOR_CALLBACK\r\n        //);\r\n        //emit LogNewProvableQuery(\"Provable query was sent, standing by for the answer.\");\r\n   // }\r\n\r\n    function testRandom() public returns (bytes32){\r\n        //   bytes32 queryId = bytes32(keccak256(abi.encodePacked(msg.sender)));\r\n        bytes32 queryId = \"test123\";\r\n        // bytes32(keccak256(\"test\"));\r\n        __callback(\"1\");\r\n        return queryId;\r\n    }\r\n}",
  "sourcePath": "C:\\Users\\Slaven\\source\\repos\\flip-coin\\contracts\\Random.sol",
  "compiler": {
    "name": "solc",
    "version": "0.6.2+commit.bacdbe57.Emscripten.clang"
  },
  "schemaVersion": "3.2.2",
  "updatedAt": "2020-07-21T07:56:35.022Z",
  "devdoc": {
    "methods": {
      "__callback(bytes32,string)": {
        "details": "The following `__callback` functions are just placeholders ideally     meant to be defined in child contract when proofs are used.     The function bodies simply silence compiler warnings."
      }
    }
  },
  "userdoc": {
    "methods": {}
  }
}