{
  "contractName": "CoinFlip",
  "abi": [
    {
      "inputs": [
        {
          "internalType": "uint256",
          "name": "initialSupply",
          "type": "uint256"
        }
      ],
      "payable": true,
      "stateMutability": "payable",
      "type": "constructor"
    },
    {
      "anonymous": false,
      "inputs": [
        {
          "indexed": false,
          "internalType": "address",
          "name": "user",
          "type": "address"
        },
        {
          "indexed": false,
          "internalType": "uint256",
          "name": "bet",
          "type": "uint256"
        },
        {
          "indexed": false,
          "internalType": "bool",
          "name": "",
          "type": "bool"
        }
      ],
      "name": "placedBet",
      "type": "event"
    },
    {
      "constant": true,
      "inputs": [],
      "name": "balance",
      "outputs": [
        {
          "internalType": "uint256",
          "name": "",
          "type": "uint256"
        }
      ],
      "payable": false,
      "stateMutability": "view",
      "type": "function"
    },
    {
      "constant": true,
      "inputs": [],
      "name": "owner",
      "outputs": [
        {
          "internalType": "address",
          "name": "",
          "type": "address"
        }
      ],
      "payable": false,
      "stateMutability": "view",
      "type": "function"
    },
    {
      "constant": false,
      "inputs": [],
      "name": "flipCoin",
      "outputs": [
        {
          "internalType": "bool",
          "name": "",
          "type": "bool"
        }
      ],
      "payable": true,
      "stateMutability": "payable",
      "type": "function"
    }
  ],
  "bytecode": "0x608060405260405161037a38038061037a8339818101604052602081101561002657600080fd5b8101908080519060200190929190505050336000806101000a81548173ffffffffffffffffffffffffffffffffffffffff021916908373ffffffffffffffffffffffffffffffffffffffff16021790555080600181905550506102ec8061008e6000396000f3fe6080604052600436106100345760003560e01c8063799ae223146100395780638da5cb5b1461005b578063b69ef8a8146100b2575b600080fd5b6100416100dd565b604051808215151515815260200191505060405180910390f35b34801561006757600080fd5b5061007061028c565b604051808273ffffffffffffffffffffffffffffffffffffffff1673ffffffffffffffffffffffffffffffffffffffff16815260200191505060405180910390f35b3480156100be57600080fd5b506100c76102b1565b6040518082815260200191505060405180910390f35b600066b1a2bc2ec50000803410156100f457600080fd5b343073ffffffffffffffffffffffffffffffffffffffff16311015610181576040517f08c379a00000000000000000000000000000000000000000000000000000000081526004018080602001828103825260118152602001807f4e6f7420656e6f7567682066756e64732100000000000000000000000000000081525060200191505060405180910390fd5b600080905060016002428161019257fe5b0614156101fc5760019050346001600082825403925050819055503373ffffffffffffffffffffffffffffffffffffffff166108fc600234029081150290604051600060405180830381858888f193505050501580156101f6573d6000803e3d6000fd5b5061020d565b346001600082825401925050819055505b7f6edcdfbf522a5ccd3739a1c2dc10320abcc2f082d7cbe0522393a43c4e6331ca333483604051808473ffffffffffffffffffffffffffffffffffffffff1673ffffffffffffffffffffffffffffffffffffffff16815260200183815260200182151515158152602001935050505060405180910390a1809250505090565b6000809054906101000a900473ffffffffffffffffffffffffffffffffffffffff1681565b6001548156fea265627a7a72315820ccad9b09e5d1af21f966d5dc72e6aa8282d16f7f667947f3768f9115513352fb64736f6c634300050c0032",
  "source": "import \"./Ownable.sol\";\r\npragma solidity 0.5.12;\r\n\r\ncontract CoinFlip is Ownable{\r\n\r\n uint public balance;\r\n\r\n constructor (uint initialSupply) public payable{\r\n     balance = initialSupply;\r\n }\r\n\r\n event placedBet(address user, uint bet, bool);\r\n\r\n  modifier costs(uint cost){\r\n      require(msg.value >= cost);\r\n      _;\r\n  }\r\n\r\n  function flipCoin() public payable costs(0.05 ether) returns(bool){\r\n  require(address(this).balance >= msg.value, \"Not enough funds!\");\r\n  \r\n   bool success = false;\r\n\r\n   if(now % 2 == 1)\r\n   {\r\n     success = true;\r\n     balance -= msg.value;\r\n     msg.sender.transfer(msg.value * 2);\r\n   }else {\r\n      balance += msg.value;\r\n   }\r\n    emit placedBet(msg.sender, msg.value, success);\r\n   return success;\r\n  }\r\n\r\n}\r\n",
  "sourcePath": "C:\\Users\\slave\\Documents\\slaven-repos\\etherum-course-advanced\\flip-coin\\contracts\\CoinFlip.sol",
  "compiler": {
    "name": "solc",
    "version": "0.5.12+commit.7709ece9.Emscripten.clang"
  },
  "schemaVersion": "3.0.23",
  "updatedAt": "2020-05-14T23:33:58.737Z",
  "networkType": "ethereum",
  "devdoc": {
    "methods": {}
  },
  "userdoc": {
    "methods": {}
  }
}