{
  "contractName": "CoinFlip",
  "abi": [
    {
      "inputs": [
        {
          "internalType": "uint256",
          "name": "initialSupply",
          "type": "uint256"
        }
      ],
      "stateMutability": "payable",
      "type": "constructor"
    },
    {
      "anonymous": false,
      "inputs": [
        {
          "indexed": false,
          "internalType": "string",
          "name": "description",
          "type": "string"
        }
      ],
      "name": "LogNewProvableQuery",
      "type": "event"
    },
    {
      "anonymous": false,
      "inputs": [
        {
          "indexed": false,
          "internalType": "string",
          "name": "reason",
          "type": "string"
        }
      ],
      "name": "error",
      "type": "event"
    },
    {
      "anonymous": false,
      "inputs": [
        {
          "indexed": false,
          "internalType": "uint256",
          "name": "randomNumber",
          "type": "uint256"
        }
      ],
      "name": "generatedRandomNumber",
      "type": "event"
    },
    {
      "anonymous": false,
      "inputs": [
        {
          "indexed": false,
          "internalType": "bytes",
          "name": "lowLevelData",
          "type": "bytes"
        }
      ],
      "name": "lowLevelError",
      "type": "event"
    },
    {
      "anonymous": false,
      "inputs": [
        {
          "indexed": false,
          "internalType": "address",
          "name": "user",
          "type": "address"
        },
        {
          "indexed": false,
          "internalType": "uint256",
          "name": "bet",
          "type": "uint256"
        },
        {
          "indexed": false,
          "internalType": "bool",
          "name": "success",
          "type": "bool"
        }
      ],
      "name": "placedBet",
      "type": "event"
    },
    {
      "inputs": [
        {
          "internalType": "bytes32",
          "name": "_myid",
          "type": "bytes32"
        },
        {
          "internalType": "string",
          "name": "_result",
          "type": "string"
        }
      ],
      "name": "__callback",
      "outputs": [],
      "stateMutability": "nonpayable",
      "type": "function"
    },
    {
      "inputs": [
        {
          "internalType": "bytes32",
          "name": "_queryId",
          "type": "bytes32"
        },
        {
          "internalType": "string",
          "name": "_result",
          "type": "string"
        },
        {
          "internalType": "bytes",
          "name": "_proof",
          "type": "bytes"
        }
      ],
      "name": "__callback",
      "outputs": [],
      "stateMutability": "nonpayable",
      "type": "function"
    },
    {
      "inputs": [],
      "name": "balance",
      "outputs": [
        {
          "internalType": "uint256",
          "name": "",
          "type": "uint256"
        }
      ],
      "stateMutability": "view",
      "type": "function"
    },
    {
      "inputs": [],
      "name": "getRandomNum",
      "outputs": [],
      "stateMutability": "nonpayable",
      "type": "function"
    },
    {
      "inputs": [],
      "name": "latestNumber",
      "outputs": [
        {
          "internalType": "uint256",
          "name": "",
          "type": "uint256"
        }
      ],
      "stateMutability": "view",
      "type": "function"
    },
    {
      "inputs": [],
      "name": "owner",
      "outputs": [
        {
          "internalType": "address",
          "name": "",
          "type": "address"
        }
      ],
      "stateMutability": "view",
      "type": "function"
    },
    {
      "inputs": [],
      "name": "testRandom",
      "outputs": [
        {
          "internalType": "bytes32",
          "name": "",
          "type": "bytes32"
        }
      ],
      "stateMutability": "nonpayable",
      "type": "function"
    },
    {
      "inputs": [],
      "name": "update",
      "outputs": [],
      "stateMutability": "payable",
      "type": "function"
    },
    {
      "inputs": [],
      "name": "getRandom",
      "outputs": [
        {
          "internalType": "bool",
          "name": "",
          "type": "bool"
        }
      ],
      "stateMutability": "payable",
      "type": "function"
    },
    {
      "inputs": [
        {
          "internalType": "uint256",
          "name": "randomNum",
          "type": "uint256"
        }
      ],
      "name": "flipCoin",
      "outputs": [
        {
          "internalType": "bool",
          "name": "",
          "type": "bool"
        }
      ],
      "stateMutability": "payable",
      "type": "function"
    }
  ],
  "bytecode": "0x60806040526040516200988f3803806200988f833981810160405260208110156200002957600080fd5b8101908080519060200190929190505050336000806101000a81548173ffffffffffffffffffffffffffffffffffffffff021916908373ffffffffffffffffffffffffffffffffffffffff1602179055506200008a6200010460201b60201c565b80600b819055506040516200009f9062001f40565b604051809103906000f080158015620000bc573d6000803e3d6000fd5b50600a60006101000a81548173ffffffffffffffffffffffffffffffffffffffff021916908373ffffffffffffffffffffffffffffffffffffffff160217905550506200203f565b6000809050600062030d409050600062000127836001846200017a60201b60201c565b90507fc4dc360d0a9c0677a3379ae0a3d81e887f761e65fdf3d7e00859d1bcd3c473896040518080602001828103825260348152602001806200985b6034913960400191505060405180910390a1505050565b600080831180156200018d575060208311155b6200019757600080fd5b600a84029350606060016040519080825280601f01601f191660200182016040528015620001d45781602001600182028038833980820191505090505b5090508360f81b81600081518110620001e957fe5b60200101907effffffffffffffffffffffffffffffffffffffffffffffffffffffffffffff1916908160001a905350606060206040519080825280601f01601f1916602001820160405280156200024f5781602001600182028038833980820191505090505b509050606060206040519080825280601f01601f191660200182016040528015620002895781602001600182028038833980820191505090505b50905060006200029e6200074d60201b60201c565b905060208352424118600143034018602084015260208252806020830152606060206040519080825280601f01601f191660200182016040528015620002f35781602001600182028038833980820191505090505b509050886020820152606060086040519080825280601f01601f191660200182016040528015620003335781602001600182028038833980820191505090505b5090506200034e826018600884600062000a8960201b60201c565b506200035962001f4e565b60405180608001604052808781526020018881526020018681526020018481525090506000620003c66040518060400160405280600681526020017f72616e646f6d0000000000000000000000000000000000000000000000000000815250838c62000aeb60201b60201c565b9050606060086040519080825280601f01601f191660200182016040528015620003ff5781602001600182028038833980820191505090505b50905060208401517f0100000000000000000000000000000000000000000000000000000000000000810460278301537e01000000000000000000000000000000000000000000000000000000000000810460268301537d010000000000000000000000000000000000000000000000000000000000810460258301537c0100000000000000000000000000000000000000000000000000000000810460248301537b01000000000000000000000000000000000000000000000000000000810460238301537a0100000000000000000000000000000000000000000000000000008104602283015379010000000000000000000000000000000000000000000000000081046021830153780100000000000000000000000000000000000000000000000081046020830153506200073a8282856001600481106200054057fe5b60200201516002876000600481106200055557fe5b60200201516040518082805190602001908083835b602083106200058f57805182526020820191506020810190506020830392506200056a565b6001836020036101000a038019825116818451168082178552505050505050905001915050602060405180830381855afa158015620005d2573d6000803e3d6000fd5b5050506040513d6020811015620005e857600080fd5b8101908080519060200190929190505050876002600481106200060757fe5b60200201516040516020018085805190602001908083835b602083106200064457805182526020820191506020810190506020830392506200061f565b6001836020036101000a03801982511681845116808217855250505050505090500184805190602001908083835b6020831062000697578051825260208201915060208101905060208303925062000672565b6001836020036101000a03801982511681845116808217855250505050505090500183815260200182805190602001908083835b60208310620006f05780518252602082019150602081019050602083039250620006cb565b6001836020036101000a0380198251168184511680821785525050505050509050019450505050506040516020818303038152906040528051906020012062000e8560201b60201c565b8199505050505050505050509392505050565b60008073ffffffffffffffffffffffffffffffffffffffff16600260009054906101000a900473ffffffffffffffffffffffffffffffffffffffff1673ffffffffffffffffffffffffffffffffffffffff161480620007de57506000620007dc600260009054906101000a900473ffffffffffffffffffffffffffffffffffffffff1662000ea160201b60201c565b145b15620007f857620007f6600062000eac60201b60201c565b505b600260009054906101000a900473ffffffffffffffffffffffffffffffffffffffff1673ffffffffffffffffffffffffffffffffffffffff166338cc48316040518163ffffffff1660e01b8152600401602060405180830381600087803b1580156200086357600080fd5b505af115801562000878573d6000803e3d6000fd5b505050506040513d60208110156200088f57600080fd5b810190808051906020019092919050505073ffffffffffffffffffffffffffffffffffffffff16600160009054906101000a900473ffffffffffffffffffffffffffffffffffffffff1673ffffffffffffffffffffffffffffffffffffffff1614620009de57600260009054906101000a900473ffffffffffffffffffffffffffffffffffffffff1673ffffffffffffffffffffffffffffffffffffffff166338cc48316040518163ffffffff1660e01b8152600401602060405180830381600087803b1580156200096057600080fd5b505af115801562000975573d6000803e3d6000fd5b505050506040513d60208110156200098c57600080fd5b8101908080519060200190929190505050600160006101000a81548173ffffffffffffffffffffffffffffffffffffffff021916908373ffffffffffffffffffffffffffffffffffffffff1602179055505b600160009054906101000a900473ffffffffffffffffffffffffffffffffffffffff1673ffffffffffffffffffffffffffffffffffffffff1663abaa5f3e6040518163ffffffff1660e01b815260040160206040518083038186803b15801562000a4757600080fd5b505afa15801562000a5c573d6000803e3d6000fd5b505050506040513d602081101562000a7357600080fd5b8101908080519060200190929190505050905090565b606060008285019050808451101562000aa157600080fd5b600086602001905060008460200190505b86886020010182101562000adc578189015180828801525060208201915060208101905062000ab2565b85935050505095945050505050565b60008073ffffffffffffffffffffffffffffffffffffffff16600260009054906101000a900473ffffffffffffffffffffffffffffffffffffffff1673ffffffffffffffffffffffffffffffffffffffff16148062000b7c5750600062000b7a600260009054906101000a900473ffffffffffffffffffffffffffffffffffffffff1662000ea160201b60201c565b145b1562000b965762000b94600062000eac60201b60201c565b505b600260009054906101000a900473ffffffffffffffffffffffffffffffffffffffff1673ffffffffffffffffffffffffffffffffffffffff166338cc48316040518163ffffffff1660e01b8152600401602060405180830381600087803b15801562000c0157600080fd5b505af115801562000c16573d6000803e3d6000fd5b505050506040513d602081101562000c2d57600080fd5b810190808051906020019092919050505073ffffffffffffffffffffffffffffffffffffffff16600160009054906101000a900473ffffffffffffffffffffffffffffffffffffffff1673ffffffffffffffffffffffffffffffffffffffff161462000d7c57600260009054906101000a900473ffffffffffffffffffffffffffffffffffffffff1673ffffffffffffffffffffffffffffffffffffffff166338cc48316040518163ffffffff1660e01b8152600401602060405180830381600087803b15801562000cfe57600080fd5b505af115801562000d13573d6000803e3d6000fd5b505050506040513d602081101562000d2a57600080fd5b8101908080519060200190929190505050600160006101000a81548173ffffffffffffffffffffffffffffffffffffffff021916908373ffffffffffffffffffffffffffffffffffffffff1602179055505b6060600460405190808252806020026020018201604052801562000db557816020015b606081526020019060019003908162000d9f5790505b5090508360006004811062000dc657fe5b60200201518160008151811062000dd957fe5b60200260200101819052508360016004811062000df257fe5b60200201518160018151811062000e0557fe5b60200260200101819052508360026004811062000e1e57fe5b60200201518160028151811062000e3157fe5b60200260200101819052508360036004811062000e4a57fe5b60200201518160038151811062000e5d57fe5b602002602001018190525062000e7b85828562000ec560201b60201c565b9150509392505050565b8060046000848152602001908152602001600020819055505050565b6000813b9050919050565b600062000ebe6200145d60201b60201c565b9050919050565b60008073ffffffffffffffffffffffffffffffffffffffff16600260009054906101000a900473ffffffffffffffffffffffffffffffffffffffff1673ffffffffffffffffffffffffffffffffffffffff16148062000f565750600062000f54600260009054906101000a900473ffffffffffffffffffffffffffffffffffffffff1662000ea160201b60201c565b145b1562000f705762000f6e600062000eac60201b60201c565b505b600260009054906101000a900473ffffffffffffffffffffffffffffffffffffffff1673ffffffffffffffffffffffffffffffffffffffff166338cc48316040518163ffffffff1660e01b8152600401602060405180830381600087803b15801562000fdb57600080fd5b505af115801562000ff0573d6000803e3d6000fd5b505050506040513d60208110156200100757600080fd5b810190808051906020019092919050505073ffffffffffffffffffffffffffffffffffffffff16600160009054906101000a900473ffffffffffffffffffffffffffffffffffffffff1673ffffffffffffffffffffffffffffffffffffffff16146200115657600260009054906101000a900473ffffffffffffffffffffffffffffffffffffffff1673ffffffffffffffffffffffffffffffffffffffff166338cc48316040518163ffffffff1660e01b8152600401602060405180830381600087803b158015620010d857600080fd5b505af1158015620010ed573d6000803e3d6000fd5b505050506040513d60208110156200110457600080fd5b8101908080519060200190929190505050600160006101000a81548173ffffffffffffffffffffffffffffffffffffffff021916908373ffffffffffffffffffffffffffffffffffffffff1602179055505b6000600160009054906101000a900473ffffffffffffffffffffffffffffffffffffffff1673ffffffffffffffffffffffffffffffffffffffff16632ef3accc86856040518363ffffffff1660e01b81526004018080602001838152602001828103825284818151815260200191508051906020019080838360005b83811015620011ef578082015181840152602081019050620011d2565b50505050905090810190601f1680156200121d5780820380516001836020036101000a031916815260200191505b509350505050602060405180830381600087803b1580156200123e57600080fd5b505af115801562001253573d6000803e3d6000fd5b505050506040513d60208110156200126a57600080fd5b81019080805190602001909291905050509050823a02670de0b6b3a7640000018111156200129f576000801b91505062001456565b6060620012b28562001a2c60201b60201c565b9050600160009054906101000a900473ffffffffffffffffffffffffffffffffffffffff1673ffffffffffffffffffffffffffffffffffffffff1663c55c1cb68360008985896040518663ffffffff1660e01b8152600401808581526020018060200180602001848152602001838103835286818151815260200191508051906020019080838360005b83811015620013595780820151818401526020810190506200133c565b50505050905090810190601f168015620013875780820380516001836020036101000a031916815260200191505b50838103825285818151815260200191508051906020019080838360005b83811015620013c2578082015181840152602081019050620013a5565b50505050905090810190601f168015620013f05780820380516001836020036101000a031916815260200191505b5096505050505050506020604051808303818588803b1580156200141357600080fd5b505af115801562001428573d6000803e3d6000fd5b50505050506040513d60208110156200144057600080fd5b8101908080519060200190929190505050925050505b9392505050565b60008062001485731d3b2638a7cc9f2cb3d298a3da7a90b67e5506ed62000ea160201b60201c565b11156200153157731d3b2638a7cc9f2cb3d298a3da7a90b67e5506ed600260006101000a81548173ffffffffffffffffffffffffffffffffffffffff021916908373ffffffffffffffffffffffffffffffffffffffff160217905550620015276040518060400160405280600b81526020017f6574685f6d61696e6e657400000000000000000000000000000000000000000081525062001ae760201b60201c565b6001905062001a29565b60006200155873c03a2615d5efaf5f49f60b7bb6583eaec212fdf162000ea160201b60201c565b1115620016045773c03a2615d5efaf5f49f60b7bb6583eaec212fdf1600260006101000a81548173ffffffffffffffffffffffffffffffffffffffff021916908373ffffffffffffffffffffffffffffffffffffffff160217905550620015fa6040518060400160405280600c81526020017f6574685f726f707374656e33000000000000000000000000000000000000000081525062001ae760201b60201c565b6001905062001a29565b60006200162b73b7a07bcf2ba2f2703b24c0691b5278999c59ac7e62000ea160201b60201c565b1115620016d75773b7a07bcf2ba2f2703b24c0691b5278999c59ac7e600260006101000a81548173ffffffffffffffffffffffffffffffffffffffff021916908373ffffffffffffffffffffffffffffffffffffffff160217905550620016cd6040518060400160405280600981526020017f6574685f6b6f76616e000000000000000000000000000000000000000000000081525062001ae760201b60201c565b6001905062001a29565b6000620016fe73146500cfd35b22e4a392fe0adc06de1a1368ed4862000ea160201b60201c565b1115620017aa5773146500cfd35b22e4a392fe0adc06de1a1368ed48600260006101000a81548173ffffffffffffffffffffffffffffffffffffffff021916908373ffffffffffffffffffffffffffffffffffffffff160217905550620017a06040518060400160405280600b81526020017f6574685f72696e6b65627900000000000000000000000000000000000000000081525062001ae760201b60201c565b6001905062001a29565b6000620017d173a2998efd205fb9d4b4963afb70778d6354ad3a4162000ea160201b60201c565b11156200187d5773a2998efd205fb9d4b4963afb70778d6354ad3a41600260006101000a81548173ffffffffffffffffffffffffffffffffffffffff021916908373ffffffffffffffffffffffffffffffffffffffff160217905550620018736040518060400160405280600a81526020017f6574685f676f65726c690000000000000000000000000000000000000000000081525062001ae760201b60201c565b6001905062001a29565b6000620018a4736f485c8bf6fc43ea212e93bbf8ce046c7f1cb47562000ea160201b60201c565b11156200190a57736f485c8bf6fc43ea212e93bbf8ce046c7f1cb475600260006101000a81548173ffffffffffffffffffffffffffffffffffffffff021916908373ffffffffffffffffffffffffffffffffffffffff1602179055506001905062001a29565b6000620019317320e12a1f859b3feae5fb2a0a32c18f5a65555bbf62000ea160201b60201c565b111562001997577320e12a1f859b3feae5fb2a0a32c18f5a65555bbf600260006101000a81548173ffffffffffffffffffffffffffffffffffffffff021916908373ffffffffffffffffffffffffffffffffffffffff1602179055506001905062001a29565b6000620019be7351efaf4c8b3c9afbd5ab9f4bbc82784ab6ef8faa62000ea160201b60201c565b111562001a24577351efaf4c8b3c9afbd5ab9f4bbc82784ab6ef8faa600260006101000a81548173ffffffffffffffffffffffffffffffffffffffff021916908373ffffffffffffffffffffffffffffffffffffffff1602179055506001905062001a29565b600090505b90565b606062001a3e62001b0360201b60201c565b62001a4862001f76565b62001a618161040062001b0f60201b62002aa61760201c565b62001a778162001b5c60201b62002af01760201c565b60008090505b835181101562001ac35762001ab584828151811062001a9857fe5b60200260200101518362001b7260201b62002afe1790919060201c565b808060010191505062001a7d565b5062001ada8162001ba660201b62002b231760201c565b8060000151915050919050565b806003908051906020019062001aff92919062001f90565b5050565b60405180590338823950565b600081905060006020828162001b2157fe5b061462001b3c576020818162001b3357fe5b06602003810190505b808360200181815250506040518084526000815281810160405250505050565b62001b6f81600462001bbc60201b60201c565b50565b62001b87826002835162001be460201b60201c565b62001ba1818362001d6c60201b62002c921790919060201c565b505050565b62001bb981600762001bbc60201b60201c565b50565b62001be0601f60058360ff16901b178362001e2c60201b62002d3d1790919060201c565b5050565b6017811162001c195762001c138160058460ff16901b60ff16178462001e2c60201b62002d3d1790919060201c565b62001d67565b60ff811162001c6a5762001c46601860058460ff16901b178462001e2c60201b62002d3d1790919060201c565b62001c638160018562001e7560201b62002d7d179092919060201c565b5062001d66565b61ffff811162001cbc5762001c98601960058460ff16901b178462001e2c60201b62002d3d1790919060201c565b62001cb58160028562001e7560201b62002d7d179092919060201c565b5062001d65565b63ffffffff811162001d105762001cec601a60058460ff16901b178462001e2c60201b62002d3d1790919060201c565b62001d098160048562001e7560201b62002d7d179092919060201c565b5062001d64565b67ffffffffffffffff811162001d635762001d44601b60058460ff16901b178462001e2c60201b62002d3d1790919060201c565b62001d618160088562001e7560201b62002d7d179092919060201c565b505b5b5b5b5b505050565b62001d7662001f76565b8260200151836000015151835101111562001db75762001db683600262001da98660200151865162001eef60201b60201c565b0262001f0d60201b60201c565b5b60008060008451905085518051602081830101945086518101825260208701935050505b6020811062001e00578151835260208301925060208201915060208103905062001ddb565b60006001826020036101000a039050801983511681855116818117865250508694505050505092915050565b8160200151600183600001515101111562001e5b5762001e5a82600284602001510262001f0d60201b60201c565b5b815180516020818301018381536001820183525050505050565b62001e7f62001f76565b83602001518460000151518301111562001ebe5762001ebd84600262001eb087602001518662001eef60201b60201c565b0262001f0d60201b60201c565b5b60006001836101000a0390508451805184818301018684198251161781528582018352505050849150509392505050565b60008183111562001f035782905062001f07565b8190505b92915050565b60608260000151905062001f28838362001b0f60201b60201c565b62001f3a838262001d6c60201b60201c565b50505050565b61486c8062004fef83390190565b60405180608001604052806004905b606081526020019060019003908162001f5d5790505090565b604051806040016040528060608152602001600081525090565b828054600181600116156101000203166002900490600052602060002090601f016020900481019282601f1062001fd357805160ff191683800117855562002004565b8280016001018555821562002004579182015b828111156200200357825182559160200191906001019062001fe6565b5b50905062002013919062002017565b5090565b6200203c91905b80821115620020385760008160009055506001016200201e565b5090565b90565b612fa0806200204f6000396000f3fe6080604052600436106100915760003560e01c8063a2e6204511610059578063a2e6204514610385578063aacc5a171461038f578063b69ef8a8146103b1578063dc34b0aa146103dc578063fbddd14b1461040757610091565b806325b814f41461009657806327dc297e146100ad57806338bbfa501461017f5780635f5be1f4146102e85780638da5cb5b1461032e575b600080fd5b3480156100a257600080fd5b506100ab610432565b005b3480156100b957600080fd5b5061017d600480360360408110156100d057600080fd5b8101908080359060200190929190803590602001906401000000008111156100f757600080fd5b82018360208201111561010957600080fd5b8035906020019184600183028401116401000000008311171561012b57600080fd5b91908080601f016020809104026020016040519081016040528093929190818152602001838380828437600081840152601f19601f8201169050808301925050505050505091929192905050506105d4565b005b34801561018b57600080fd5b506102e6600480360360608110156101a257600080fd5b8101908080359060200190929190803590602001906401000000008111156101c957600080fd5b8201836020820111156101db57600080fd5b803590602001918460018302840111640100000000831117156101fd57600080fd5b91908080601f016020809104026020016040519081016040528093929190818152602001838380828437600081840152601f19601f8201169050808301925050505050505091929192908035906020019064010000000081111561026057600080fd5b82018360208201111561027257600080fd5b8035906020019184600183028401116401000000008311171561029457600080fd5b91908080601f016020809104026020016040519081016040528093929190818152602001838380828437600081840152601f19601f820116905080830192505050505050509192919290505050610617565b005b610314600480360360208110156102fe57600080fd5b8101908080359060200190929190505050610786565b604051808215151515815260200191505060405180910390f35b34801561033a57600080fd5b50610343610913565b604051808273ffffffffffffffffffffffffffffffffffffffff1673ffffffffffffffffffffffffffffffffffffffff16815260200191505060405180910390f35b61038d610938565b005b6103976109a5565b604051808215151515815260200191505060405180910390f35b3480156103bd57600080fd5b506103c6610d71565b6040518082815260200191505060405180910390f35b3480156103e857600080fd5b506103f1610d77565b6040518082815260200191505060405180910390f35b34801561041357600080fd5b5061041c610d7d565b6040518082815260200191505060405180910390f35b600061043c610d7d565b9050610446612e23565b600860003373ffffffffffffffffffffffffffffffffffffffff1673ffffffffffffffffffffffffffffffffffffffff16815260200190815260200160002060030160009054906101000a900460ff16610537576104a2610e34565b8160000181815250506001816060019015159081151581525050818160200181815250506104cf81610e4c565b6009339080600181540180825580915050600190039060005260206000200160009091909190916101000a81548173ffffffffffffffffffffffffffffffffffffffff021916908373ffffffffffffffffffffffffffffffffffffffff1602179055506105d0565b600860003373ffffffffffffffffffffffffffffffffffffffff1673ffffffffffffffffffffffffffffffffffffffff1681526020019081526020016000206040518060800160405290816000820154815260200160018201548152602001600282015481526020016003820160009054906101000a900460ff1615151515815250509050818160200181815250506105cf81610ed6565b5b5050565b610613828260006040519080825280601f01601f19166020018201604052801561060d5781602001600182028038833980820191505090505b50610617565b5050565b61061f610f60565b73ffffffffffffffffffffffffffffffffffffffff163373ffffffffffffffffffffffffffffffffffffffff16146106bf576040517f08c379a00000000000000000000000000000000000000000000000000000000081526004018080602001828103825260058152602001807f4572726f7200000000000000000000000000000000000000000000000000000081525060200191505060405180910390fd5b60006002836040516020018082805190602001908083835b602083106106fa57805182526020820191506020810190506020830392506106d7565b6001836020036101000a0380198251168184511680821785525050505050509050019150506040516020818303038152906040528051906020012060001c8161073f57fe5b069050806006819055507fc13d60fe9dffdb6908d2d446cd18134373a51db0738ee04f296eeb9128121cbc816040518082815260200191505060405180910390a150505050565b600066b1a2bc2ec5000080341015610806576040517f08c379a00000000000000000000000000000000000000000000000000000000081526004018080602001828103825260058152602001807f4572726f7200000000000000000000000000000000000000000000000000000081525060200191505060405180910390fd5b600080905060016002858161081757fe5b061415610881576001905034600b600082825403925050819055503373ffffffffffffffffffffffffffffffffffffffff166108fc600234029081150290604051600060405180830381858888f1935050505015801561087b573d6000803e3d6000fd5b50610892565b34600b600082825401925050819055505b7f6edcdfbf522a5ccd3739a1c2dc10320abcc2f082d7cbe0522393a43c4e6331ca333483604051808473ffffffffffffffffffffffffffffffffffffffff1673ffffffffffffffffffffffffffffffffffffffff16815260200183815260200182151515158152602001935050505060405180910390a18092505050919050565b6000809054906101000a900473ffffffffffffffffffffffffffffffffffffffff1681565b6000809050600062030d409050600061095383600184611282565b90507fc4dc360d0a9c0677a3379ae0a3d81e887f761e65fdf3d7e00859d1bcd3c47389604051808060200182810382526034815260200180612f376034913960400191505060405180910390a1505050565b600066b1a2bc2ec5000080341015610a25576040517f08c379a00000000000000000000000000000000000000000000000000000000081526004018080602001828103825260058152602001807f4572726f7200000000000000000000000000000000000000000000000000000081525060200191505060405180910390fd5b34471015610a9b576040517f08c379a00000000000000000000000000000000000000000000000000000000081526004018080602001828103825260118152602001807f4e6f7420656e6f7567682066756e64732100000000000000000000000000000081525060200191505060405180910390fd5b600a60009054906101000a900473ffffffffffffffffffffffffffffffffffffffff1673ffffffffffffffffffffffffffffffffffffffff166325b814f46040518163ffffffff1660e01b8152600401600060405180830381600087803b158015610b0557600080fd5b505af1925050508015610b16575060015b610d68576000604051905060008152600115610bdf5760443d1015610b3e5760009050610bdf565b60046000803e60005160e01c6308c379a08114610b5f576000915050610bdf565b60043d036004833e81513d602482011167ffffffffffffffff82111715610b8b57600092505050610bdf565b808301805167ffffffffffffffff811115610bad576000945050505050610bdf565b8060208301013d8601811115610bcb57600095505050505050610bdf565b601f19601f82011660405282955050505050505b80610bea5750610c90565b7f24c93343bea44ff8f0e628ca4e5b87dfe0823d664c887457e166a03798bb191c816040518080602001828103825283818151815260200191508051906020019080838360005b83811015610c4c578082015181840152602081019050610c31565b50505050905090810190601f168015610c795780820380516001836020036101000a031916815260200191505b509250505060405180910390a16000925050610d6d565b3d8060008114610cbc576040519150601f19603f3d011682016040523d82523d6000602084013e610cc1565b606091505b507f6ec455eafedf108a7e30dedfd166258f472947380d60be381103ee68a240ac0a816040518080602001828103825283818151815260200191508051906020019080838360005b83811015610d24578082015181840152602081019050610d09565b50505050905090810190601f168015610d515780820380516001836020036101000a031916815260200191505b509250505060405180910390a16000925050610d6d565b600191505b5090565b600b5481565b60065481565b60008060405180807f7465737400000000000000000000000000000000000000000000000000000000815250600401905060405180910390209050610e2d816040518060400160405280600181526020017f31000000000000000000000000000000000000000000000000000000000000008152506040518060400160405280600481526020017f7465737400000000000000000000000000000000000000000000000000000000815250610617565b8091505090565b60006007600081548092919060010191905055905090565b600033905081600860008373ffffffffffffffffffffffffffffffffffffffff1673ffffffffffffffffffffffffffffffffffffffff16815260200190815260200160002060008201518160000155602082015181600101556040820151816002015560608201518160030160006101000a81548160ff0219169083151502179055509050505050565b600033905081600860008373ffffffffffffffffffffffffffffffffffffffff1673ffffffffffffffffffffffffffffffffffffffff16815260200190815260200160002060008201518160000155602082015181600101556040820151816002015560608201518160030160006101000a81548160ff0219169083151502179055509050505050565b60008073ffffffffffffffffffffffffffffffffffffffff16600260009054906101000a900473ffffffffffffffffffffffffffffffffffffffff1673ffffffffffffffffffffffffffffffffffffffff161480610fe857506000610fe6600260009054906101000a900473ffffffffffffffffffffffffffffffffffffffff1661181d565b145b15610ff957610ff76000611828565b505b600260009054906101000a900473ffffffffffffffffffffffffffffffffffffffff1673ffffffffffffffffffffffffffffffffffffffff166338cc48316040518163ffffffff1660e01b8152600401602060405180830381600087803b15801561106357600080fd5b505af1158015611077573d6000803e3d6000fd5b505050506040513d602081101561108d57600080fd5b810190808051906020019092919050505073ffffffffffffffffffffffffffffffffffffffff16600160009054906101000a900473ffffffffffffffffffffffffffffffffffffffff1673ffffffffffffffffffffffffffffffffffffffff16146111d857600260009054906101000a900473ffffffffffffffffffffffffffffffffffffffff1673ffffffffffffffffffffffffffffffffffffffff166338cc48316040518163ffffffff1660e01b8152600401602060405180830381600087803b15801561115c57600080fd5b505af1158015611170573d6000803e3d6000fd5b505050506040513d602081101561118657600080fd5b8101908080519060200190929190505050600160006101000a81548173ffffffffffffffffffffffffffffffffffffffff021916908373ffffffffffffffffffffffffffffffffffffffff1602179055505b600160009054906101000a900473ffffffffffffffffffffffffffffffffffffffff1673ffffffffffffffffffffffffffffffffffffffff1663c281d19e6040518163ffffffff1660e01b8152600401602060405180830381600087803b15801561124257600080fd5b505af1158015611256573d6000803e3d6000fd5b505050506040513d602081101561126c57600080fd5b8101908080519060200190929190505050905090565b60008083118015611294575060208311155b61129d57600080fd5b600a84029350606060016040519080825280601f01601f1916602001820160405280156112d95781602001600182028038833980820191505090505b5090508360f81b816000815181106112ed57fe5b60200101907effffffffffffffffffffffffffffffffffffffffffffffffffffffffffffff1916908160001a905350606060206040519080825280601f01601f1916602001820160405280156113525781602001600182028038833980820191505090505b509050606060206040519080825280601f01601f19166020018201604052801561138b5781602001600182028038833980820191505090505b5090506000611398611839565b905060208352424118600143034018602084015260208252806020830152606060206040519080825280601f01601f1916602001820160405280156113ec5781602001600182028038833980820191505090505b509050886020820152606060086040519080825280601f01601f19166020018201604052801561142b5781602001600182028038833980820191505090505b50905061143e8260186008846000611b59565b50611447612e50565b604051806080016040528087815260200188815260200186815260200184815250905060006114ac6040518060400160405280600681526020017f72616e646f6d0000000000000000000000000000000000000000000000000000815250838c611bb8565b9050606060086040519080825280601f01601f1916602001820160405280156114e45781602001600182028038833980820191505090505b50905060208401517f0100000000000000000000000000000000000000000000000000000000000000810460278301537e01000000000000000000000000000000000000000000000000000000000000810460268301537d010000000000000000000000000000000000000000000000000000000000810460258301537c0100000000000000000000000000000000000000000000000000000000810460248301537b01000000000000000000000000000000000000000000000000000000810460238301537a01000000000000000000000000000000000000000000000000000081046022830153790100000000000000000000000000000000000000000000000000810460218301537801000000000000000000000000000000000000000000000000810460208301535061180a82828560016004811061162357fe5b602002015160028760006004811061163757fe5b60200201516040518082805190602001908083835b6020831061166f578051825260208201915060208101905060208303925061164c565b6001836020036101000a038019825116818451168082178552505050505050905001915050602060405180830381855afa1580156116b1573d6000803e3d6000fd5b5050506040513d60208110156116c657600080fd5b8101908080519060200190929190505050876002600481106116e457fe5b60200201516040516020018085805190602001908083835b6020831061171f57805182526020820191506020810190506020830392506116fc565b6001836020036101000a03801982511681845116808217855250505050505090500184805190602001908083835b60208310611770578051825260208201915060208101905060208303925061174d565b6001836020036101000a03801982511681845116808217855250505050505090500183815260200182805190602001908083835b602083106117c757805182526020820191506020810190506020830392506117a4565b6001836020036101000a03801982511681845116808217855250505050505090500194505050505060405160208183030381529060405280519060200120611f27565b8199505050505050505050509392505050565b6000813b9050919050565b6000611832611f43565b9050919050565b60008073ffffffffffffffffffffffffffffffffffffffff16600260009054906101000a900473ffffffffffffffffffffffffffffffffffffffff1673ffffffffffffffffffffffffffffffffffffffff1614806118c1575060006118bf600260009054906101000a900473ffffffffffffffffffffffffffffffffffffffff1661181d565b145b156118d2576118d06000611828565b505b600260009054906101000a900473ffffffffffffffffffffffffffffffffffffffff1673ffffffffffffffffffffffffffffffffffffffff166338cc48316040518163ffffffff1660e01b8152600401602060405180830381600087803b15801561193c57600080fd5b505af1158015611950573d6000803e3d6000fd5b505050506040513d602081101561196657600080fd5b810190808051906020019092919050505073ffffffffffffffffffffffffffffffffffffffff16600160009054906101000a900473ffffffffffffffffffffffffffffffffffffffff1673ffffffffffffffffffffffffffffffffffffffff1614611ab157600260009054906101000a900473ffffffffffffffffffffffffffffffffffffffff1673ffffffffffffffffffffffffffffffffffffffff166338cc48316040518163ffffffff1660e01b8152600401602060405180830381600087803b158015611a3557600080fd5b505af1158015611a49573d6000803e3d6000fd5b505050506040513d6020811015611a5f57600080fd5b8101908080519060200190929190505050600160006101000a81548173ffffffffffffffffffffffffffffffffffffffff021916908373ffffffffffffffffffffffffffffffffffffffff1602179055505b600160009054906101000a900473ffffffffffffffffffffffffffffffffffffffff1673ffffffffffffffffffffffffffffffffffffffff1663abaa5f3e6040518163ffffffff1660e01b815260040160206040518083038186803b158015611b1957600080fd5b505afa158015611b2d573d6000803e3d6000fd5b505050506040513d6020811015611b4357600080fd5b8101908080519060200190929190505050905090565b6060600082850190508084511015611b7057600080fd5b600086602001905060008460200190505b868860200101821015611ba95781890151808288015250602082019150602081019050611b81565b85935050505095945050505050565b60008073ffffffffffffffffffffffffffffffffffffffff16600260009054906101000a900473ffffffffffffffffffffffffffffffffffffffff1673ffffffffffffffffffffffffffffffffffffffff161480611c4057506000611c3e600260009054906101000a900473ffffffffffffffffffffffffffffffffffffffff1661181d565b145b15611c5157611c4f6000611828565b505b600260009054906101000a900473ffffffffffffffffffffffffffffffffffffffff1673ffffffffffffffffffffffffffffffffffffffff166338cc48316040518163ffffffff1660e01b8152600401602060405180830381600087803b158015611cbb57600080fd5b505af1158015611ccf573d6000803e3d6000fd5b505050506040513d6020811015611ce557600080fd5b810190808051906020019092919050505073ffffffffffffffffffffffffffffffffffffffff16600160009054906101000a900473ffffffffffffffffffffffffffffffffffffffff1673ffffffffffffffffffffffffffffffffffffffff1614611e3057600260009054906101000a900473ffffffffffffffffffffffffffffffffffffffff1673ffffffffffffffffffffffffffffffffffffffff166338cc48316040518163ffffffff1660e01b8152600401602060405180830381600087803b158015611db457600080fd5b505af1158015611dc8573d6000803e3d6000fd5b505050506040513d6020811015611dde57600080fd5b8101908080519060200190929190505050600160006101000a81548173ffffffffffffffffffffffffffffffffffffffff021916908373ffffffffffffffffffffffffffffffffffffffff1602179055505b60606004604051908082528060200260200182016040528015611e6757816020015b6060815260200190600190039081611e525790505b50905083600060048110611e7757fe5b602002015181600081518110611e8957fe5b602002602001018190525083600160048110611ea157fe5b602002015181600181518110611eb357fe5b602002602001018190525083600260048110611ecb57fe5b602002015181600281518110611edd57fe5b602002602001018190525083600360048110611ef557fe5b602002015181600381518110611f0757fe5b6020026020010181905250611f1d85828561249a565b9150509392505050565b8060046000848152602001908152602001600020819055505050565b600080611f63731d3b2638a7cc9f2cb3d298a3da7a90b67e5506ed61181d565b111561200557731d3b2638a7cc9f2cb3d298a3da7a90b67e5506ed600260006101000a81548173ffffffffffffffffffffffffffffffffffffffff021916908373ffffffffffffffffffffffffffffffffffffffff160217905550611ffc6040518060400160405280600b81526020017f6574685f6d61696e6e6574000000000000000000000000000000000000000000815250612a00565b60019050612497565b600061202473c03a2615d5efaf5f49f60b7bb6583eaec212fdf161181d565b11156120c65773c03a2615d5efaf5f49f60b7bb6583eaec212fdf1600260006101000a81548173ffffffffffffffffffffffffffffffffffffffff021916908373ffffffffffffffffffffffffffffffffffffffff1602179055506120bd6040518060400160405280600c81526020017f6574685f726f707374656e330000000000000000000000000000000000000000815250612a00565b60019050612497565b60006120e573b7a07bcf2ba2f2703b24c0691b5278999c59ac7e61181d565b11156121875773b7a07bcf2ba2f2703b24c0691b5278999c59ac7e600260006101000a81548173ffffffffffffffffffffffffffffffffffffffff021916908373ffffffffffffffffffffffffffffffffffffffff16021790555061217e6040518060400160405280600981526020017f6574685f6b6f76616e0000000000000000000000000000000000000000000000815250612a00565b60019050612497565b60006121a673146500cfd35b22e4a392fe0adc06de1a1368ed4861181d565b11156122485773146500cfd35b22e4a392fe0adc06de1a1368ed48600260006101000a81548173ffffffffffffffffffffffffffffffffffffffff021916908373ffffffffffffffffffffffffffffffffffffffff16021790555061223f6040518060400160405280600b81526020017f6574685f72696e6b656279000000000000000000000000000000000000000000815250612a00565b60019050612497565b600061226773a2998efd205fb9d4b4963afb70778d6354ad3a4161181d565b11156123095773a2998efd205fb9d4b4963afb70778d6354ad3a41600260006101000a81548173ffffffffffffffffffffffffffffffffffffffff021916908373ffffffffffffffffffffffffffffffffffffffff1602179055506123006040518060400160405280600a81526020017f6574685f676f65726c6900000000000000000000000000000000000000000000815250612a00565b60019050612497565b6000612328736f485c8bf6fc43ea212e93bbf8ce046c7f1cb47561181d565b111561238c57736f485c8bf6fc43ea212e93bbf8ce046c7f1cb475600260006101000a81548173ffffffffffffffffffffffffffffffffffffffff021916908373ffffffffffffffffffffffffffffffffffffffff16021790555060019050612497565b60006123ab7320e12a1f859b3feae5fb2a0a32c18f5a65555bbf61181d565b111561240f577320e12a1f859b3feae5fb2a0a32c18f5a65555bbf600260006101000a81548173ffffffffffffffffffffffffffffffffffffffff021916908373ffffffffffffffffffffffffffffffffffffffff16021790555060019050612497565b600061242e7351efaf4c8b3c9afbd5ab9f4bbc82784ab6ef8faa61181d565b1115612492577351efaf4c8b3c9afbd5ab9f4bbc82784ab6ef8faa600260006101000a81548173ffffffffffffffffffffffffffffffffffffffff021916908373ffffffffffffffffffffffffffffffffffffffff16021790555060019050612497565b600090505b90565b60008073ffffffffffffffffffffffffffffffffffffffff16600260009054906101000a900473ffffffffffffffffffffffffffffffffffffffff1673ffffffffffffffffffffffffffffffffffffffff16148061252257506000612520600260009054906101000a900473ffffffffffffffffffffffffffffffffffffffff1661181d565b145b15612533576125316000611828565b505b600260009054906101000a900473ffffffffffffffffffffffffffffffffffffffff1673ffffffffffffffffffffffffffffffffffffffff166338cc48316040518163ffffffff1660e01b8152600401602060405180830381600087803b15801561259d57600080fd5b505af11580156125b1573d6000803e3d6000fd5b505050506040513d60208110156125c757600080fd5b810190808051906020019092919050505073ffffffffffffffffffffffffffffffffffffffff16600160009054906101000a900473ffffffffffffffffffffffffffffffffffffffff1673ffffffffffffffffffffffffffffffffffffffff161461271257600260009054906101000a900473ffffffffffffffffffffffffffffffffffffffff1673ffffffffffffffffffffffffffffffffffffffff166338cc48316040518163ffffffff1660e01b8152600401602060405180830381600087803b15801561269657600080fd5b505af11580156126aa573d6000803e3d6000fd5b505050506040513d60208110156126c057600080fd5b8101908080519060200190929190505050600160006101000a81548173ffffffffffffffffffffffffffffffffffffffff021916908373ffffffffffffffffffffffffffffffffffffffff1602179055505b6000600160009054906101000a900473ffffffffffffffffffffffffffffffffffffffff1673ffffffffffffffffffffffffffffffffffffffff16632ef3accc86856040518363ffffffff1660e01b81526004018080602001838152602001828103825284818151815260200191508051906020019080838360005b838110156127a957808201518184015260208101905061278e565b50505050905090810190601f1680156127d65780820380516001836020036101000a031916815260200191505b509350505050602060405180830381600087803b1580156127f657600080fd5b505af115801561280a573d6000803e3d6000fd5b505050506040513d602081101561282057600080fd5b81019080805190602001909291905050509050823a02670de0b6b3a764000001811115612853576000801b9150506129f9565b606061285e85612a1a565b9050600160009054906101000a900473ffffffffffffffffffffffffffffffffffffffff1673ffffffffffffffffffffffffffffffffffffffff1663c55c1cb68360008985896040518663ffffffff1660e01b8152600401808581526020018060200180602001848152602001838103835286818151815260200191508051906020019080838360005b838110156129035780820151818401526020810190506128e8565b50505050905090810190601f1680156129305780820380516001836020036101000a031916815260200191505b50838103825285818151815260200191508051906020019080838360005b8381101561296957808201518184015260208101905061294e565b50505050905090810190601f1680156129965780820380516001836020036101000a031916815260200191505b5096505050505050506020604051808303818588803b1580156129b857600080fd5b505af11580156129cc573d6000803e3d6000fd5b50505050506040513d60208110156129e357600080fd5b8101908080519060200190929190505050925050505b9392505050565b8060039080519060200190612a16929190612e77565b5050565b6060612a24612a9a565b612a2c612ef7565b612a3881610400612aa6565b612a4181612af0565b60008090505b8351811015612a8357612a76848281518110612a5f57fe5b602002602001015183612afe90919063ffffffff16565b8080600101915050612a47565b50612a8d81612b23565b8060000151915050919050565b60405180590338823950565b6000819050600060208281612ab757fe5b0614612ad05760208181612ac757fe5b06602003810190505b808360200181815250506040518084526000815281810160405250505050565b612afb816004612b31565b50565b612b0b8260028351612b52565b612b1e8183612c9290919063ffffffff16565b505050565b612b2e816007612b31565b50565b612b4e601f60058360ff16901b1783612d3d90919063ffffffff16565b5050565b60178111612b7e57612b798160058460ff16901b60ff161784612d3d90919063ffffffff16565b612c8d565b60ff8111612bbf57612ba3601860058460ff16901b1784612d3d90919063ffffffff16565b612bb981600185612d7d9092919063ffffffff16565b50612c8c565b61ffff8111612c0157612be5601960058460ff16901b1784612d3d90919063ffffffff16565b612bfb81600285612d7d9092919063ffffffff16565b50612c8b565b63ffffffff8111612c4557612c29601a60058460ff16901b1784612d3d90919063ffffffff16565b612c3f81600485612d7d9092919063ffffffff16565b50612c8a565b67ffffffffffffffff8111612c8957612c71601b60058460ff16901b1784612d3d90919063ffffffff16565b612c8781600885612d7d9092919063ffffffff16565b505b5b5b5b5b505050565b612c9a612ef7565b82602001518360000151518351011115612cca57612cc9836002612cc386602001518651612de4565b02612e00565b5b60008060008451905085518051602081830101945086518101825260208701935050505b60208110612d115781518352602083019250602082019150602081039050612cee565b60006001826020036101000a039050801983511681855116818117865250508694505050505092915050565b81602001516001836000015151011115612d6357612d62826002846020015102612e00565b5b815180516020818301018381536001820183525050505050565b612d85612ef7565b836020015184600001515183011115612db357612db2846002612dac876020015186612de4565b02612e00565b5b60006001836101000a0390508451805184818301018684198251161781528582018352505050849150509392505050565b600081831115612df657829050612dfa565b8190505b92915050565b606082600001519050612e138383612aa6565b612e1d8382612c92565b50505050565b60405180608001604052806000815260200160008019168152602001600081526020016000151581525090565b60405180608001604052806004905b6060815260200190600190039081612e5f5790505090565b828054600181600116156101000203166002900490600052602060002090601f016020900481019282601f10612eb857805160ff1916838001178555612ee6565b82800160010185558215612ee6579182015b82811115612ee5578251825591602001919060010190612eca565b5b509050612ef39190612f11565b5090565b604051806040016040528060608152602001600081525090565b612f3391905b80821115612f2f576000816000905550600101612f17565b5090565b9056fe50726f7661626c65207175657279207761732073656e742c207374616e64696e6720627920666f722074686520616e737765722ea2646970667358221220160d9683af8ee05a4fe41a704dcacd734ff06f5dddf3b238f43dfa5fa7ee008a64736f6c634300060200336080604052620000146200001a60201b60201c565b62001f3e565b6000809050600062030d40905060006200003d836001846200009060201b60201c565b90507fc4dc360d0a9c0677a3379ae0a3d81e887f761e65fdf3d7e00859d1bcd3c47389604051808060200182810382526034815260200180620048386034913960400191505060405180910390a1505050565b60008083118015620000a3575060208311155b620000ad57600080fd5b600a84029350606060016040519080825280601f01601f191660200182016040528015620000ea5781602001600182028038833980820191505090505b5090508360f81b81600081518110620000ff57fe5b60200101907effffffffffffffffffffffffffffffffffffffffffffffffffffffffffffff1916908160001a905350606060206040519080825280601f01601f191660200182016040528015620001655781602001600182028038833980820191505090505b509050606060206040519080825280601f01601f1916602001820160405280156200019f5781602001600182028038833980820191505090505b5090506000620001b46200066360201b60201c565b905060208352424118600143034018602084015260208252806020830152606060206040519080825280601f01601f191660200182016040528015620002095781602001600182028038833980820191505090505b509050886020820152606060086040519080825280601f01601f191660200182016040528015620002495781602001600182028038833980820191505090505b5090506200026482601860088460006200099c60201b60201c565b506200026f62001e4d565b60405180608001604052808781526020018881526020018681526020018481525090506000620002dc6040518060400160405280600681526020017f72616e646f6d0000000000000000000000000000000000000000000000000000815250838c620009fe60201b60201c565b9050606060086040519080825280601f01601f191660200182016040528015620003155781602001600182028038833980820191505090505b50905060208401517f0100000000000000000000000000000000000000000000000000000000000000810460278301537e01000000000000000000000000000000000000000000000000000000000000810460268301537d010000000000000000000000000000000000000000000000000000000000810460258301537c0100000000000000000000000000000000000000000000000000000000810460248301537b01000000000000000000000000000000000000000000000000000000810460238301537a010000000000000000000000000000000000000000000000000000810460228301537901000000000000000000000000000000000000000000000000008104602183015378010000000000000000000000000000000000000000000000008104602083015350620006508282856001600481106200045657fe5b60200201516002876000600481106200046b57fe5b60200201516040518082805190602001908083835b60208310620004a5578051825260208201915060208101905060208303925062000480565b6001836020036101000a038019825116818451168082178552505050505050905001915050602060405180830381855afa158015620004e8573d6000803e3d6000fd5b5050506040513d6020811015620004fe57600080fd5b8101908080519060200190929190505050876002600481106200051d57fe5b60200201516040516020018085805190602001908083835b602083106200055a578051825260208201915060208101905060208303925062000535565b6001836020036101000a03801982511681845116808217855250505050505090500184805190602001908083835b60208310620005ad578051825260208201915060208101905060208303925062000588565b6001836020036101000a03801982511681845116808217855250505050505090500183815260200182805190602001908083835b60208310620006065780518252602082019150602081019050602083039250620005e1565b6001836020036101000a0380198251168184511680821785525050505050509050019450505050506040516020818303038152906040528051906020012062000d9660201b60201c565b8199505050505050505050509392505050565b60008073ffffffffffffffffffffffffffffffffffffffff16600160009054906101000a900473ffffffffffffffffffffffffffffffffffffffff1673ffffffffffffffffffffffffffffffffffffffff161480620006f457506000620006f2600160009054906101000a900473ffffffffffffffffffffffffffffffffffffffff1662000db260201b60201c565b145b156200070e576200070c600062000dbd60201b60201c565b505b600160009054906101000a900473ffffffffffffffffffffffffffffffffffffffff1673ffffffffffffffffffffffffffffffffffffffff166338cc48316040518163ffffffff1660e01b8152600401602060405180830381600087803b1580156200077957600080fd5b505af11580156200078e573d6000803e3d6000fd5b505050506040513d6020811015620007a557600080fd5b810190808051906020019092919050505073ffffffffffffffffffffffffffffffffffffffff166000809054906101000a900473ffffffffffffffffffffffffffffffffffffffff1673ffffffffffffffffffffffffffffffffffffffff1614620008f257600160009054906101000a900473ffffffffffffffffffffffffffffffffffffffff1673ffffffffffffffffffffffffffffffffffffffff166338cc48316040518163ffffffff1660e01b8152600401602060405180830381600087803b1580156200087557600080fd5b505af11580156200088a573d6000803e3d6000fd5b505050506040513d6020811015620008a157600080fd5b81019080805190602001909291905050506000806101000a81548173ffffffffffffffffffffffffffffffffffffffff021916908373ffffffffffffffffffffffffffffffffffffffff1602179055505b6000809054906101000a900473ffffffffffffffffffffffffffffffffffffffff1673ffffffffffffffffffffffffffffffffffffffff1663abaa5f3e6040518163ffffffff1660e01b815260040160206040518083038186803b1580156200095a57600080fd5b505afa1580156200096f573d6000803e3d6000fd5b505050506040513d60208110156200098657600080fd5b8101908080519060200190929190505050905090565b6060600082850190508084511015620009b457600080fd5b600086602001905060008460200190505b868860200101821015620009ef5781890151808288015250602082019150602081019050620009c5565b85935050505095945050505050565b60008073ffffffffffffffffffffffffffffffffffffffff16600160009054906101000a900473ffffffffffffffffffffffffffffffffffffffff1673ffffffffffffffffffffffffffffffffffffffff16148062000a8f5750600062000a8d600160009054906101000a900473ffffffffffffffffffffffffffffffffffffffff1662000db260201b60201c565b145b1562000aa95762000aa7600062000dbd60201b60201c565b505b600160009054906101000a900473ffffffffffffffffffffffffffffffffffffffff1673ffffffffffffffffffffffffffffffffffffffff166338cc48316040518163ffffffff1660e01b8152600401602060405180830381600087803b15801562000b1457600080fd5b505af115801562000b29573d6000803e3d6000fd5b505050506040513d602081101562000b4057600080fd5b810190808051906020019092919050505073ffffffffffffffffffffffffffffffffffffffff166000809054906101000a900473ffffffffffffffffffffffffffffffffffffffff1673ffffffffffffffffffffffffffffffffffffffff161462000c8d57600160009054906101000a900473ffffffffffffffffffffffffffffffffffffffff1673ffffffffffffffffffffffffffffffffffffffff166338cc48316040518163ffffffff1660e01b8152600401602060405180830381600087803b15801562000c1057600080fd5b505af115801562000c25573d6000803e3d6000fd5b505050506040513d602081101562000c3c57600080fd5b81019080805190602001909291905050506000806101000a81548173ffffffffffffffffffffffffffffffffffffffff021916908373ffffffffffffffffffffffffffffffffffffffff1602179055505b6060600460405190808252806020026020018201604052801562000cc657816020015b606081526020019060019003908162000cb05790505b5090508360006004811062000cd757fe5b60200201518160008151811062000cea57fe5b60200260200101819052508360016004811062000d0357fe5b60200201518160018151811062000d1657fe5b60200260200101819052508360026004811062000d2f57fe5b60200201518160028151811062000d4257fe5b60200260200101819052508360036004811062000d5b57fe5b60200201518160038151811062000d6e57fe5b602002602001018190525062000d8c85828562000dd660201b60201c565b9150509392505050565b8060036000848152602001908152602001600020819055505050565b6000813b9050919050565b600062000dcf6200136a60201b60201c565b9050919050565b60008073ffffffffffffffffffffffffffffffffffffffff16600160009054906101000a900473ffffffffffffffffffffffffffffffffffffffff1673ffffffffffffffffffffffffffffffffffffffff16148062000e675750600062000e65600160009054906101000a900473ffffffffffffffffffffffffffffffffffffffff1662000db260201b60201c565b145b1562000e815762000e7f600062000dbd60201b60201c565b505b600160009054906101000a900473ffffffffffffffffffffffffffffffffffffffff1673ffffffffffffffffffffffffffffffffffffffff166338cc48316040518163ffffffff1660e01b8152600401602060405180830381600087803b15801562000eec57600080fd5b505af115801562000f01573d6000803e3d6000fd5b505050506040513d602081101562000f1857600080fd5b810190808051906020019092919050505073ffffffffffffffffffffffffffffffffffffffff166000809054906101000a900473ffffffffffffffffffffffffffffffffffffffff1673ffffffffffffffffffffffffffffffffffffffff16146200106557600160009054906101000a900473ffffffffffffffffffffffffffffffffffffffff1673ffffffffffffffffffffffffffffffffffffffff166338cc48316040518163ffffffff1660e01b8152600401602060405180830381600087803b15801562000fe857600080fd5b505af115801562000ffd573d6000803e3d6000fd5b505050506040513d60208110156200101457600080fd5b81019080805190602001909291905050506000806101000a81548173ffffffffffffffffffffffffffffffffffffffff021916908373ffffffffffffffffffffffffffffffffffffffff1602179055505b60008060009054906101000a900473ffffffffffffffffffffffffffffffffffffffff1673ffffffffffffffffffffffffffffffffffffffff16632ef3accc86856040518363ffffffff1660e01b81526004018080602001838152602001828103825284818151815260200191508051906020019080838360005b83811015620010fd578082015181840152602081019050620010e0565b50505050905090810190601f1680156200112b5780820380516001836020036101000a031916815260200191505b509350505050602060405180830381600087803b1580156200114c57600080fd5b505af115801562001161573d6000803e3d6000fd5b505050506040513d60208110156200117857600080fd5b81019080805190602001909291905050509050823a02670de0b6b3a764000001811115620011ad576000801b91505062001363565b6060620011c0856200193960201b60201c565b90506000809054906101000a900473ffffffffffffffffffffffffffffffffffffffff1673ffffffffffffffffffffffffffffffffffffffff1663c55c1cb68360008985896040518663ffffffff1660e01b8152600401808581526020018060200180602001848152602001838103835286818151815260200191508051906020019080838360005b838110156200126657808201518184015260208101905062001249565b50505050905090810190601f168015620012945780820380516001836020036101000a031916815260200191505b50838103825285818151815260200191508051906020019080838360005b83811015620012cf578082015181840152602081019050620012b2565b50505050905090810190601f168015620012fd5780820380516001836020036101000a031916815260200191505b5096505050505050506020604051808303818588803b1580156200132057600080fd5b505af115801562001335573d6000803e3d6000fd5b50505050506040513d60208110156200134d57600080fd5b8101908080519060200190929190505050925050505b9392505050565b60008062001392731d3b2638a7cc9f2cb3d298a3da7a90b67e5506ed62000db260201b60201c565b11156200143e57731d3b2638a7cc9f2cb3d298a3da7a90b67e5506ed600160006101000a81548173ffffffffffffffffffffffffffffffffffffffff021916908373ffffffffffffffffffffffffffffffffffffffff160217905550620014346040518060400160405280600b81526020017f6574685f6d61696e6e6574000000000000000000000000000000000000000000815250620019f460201b60201c565b6001905062001936565b60006200146573c03a2615d5efaf5f49f60b7bb6583eaec212fdf162000db260201b60201c565b1115620015115773c03a2615d5efaf5f49f60b7bb6583eaec212fdf1600160006101000a81548173ffffffffffffffffffffffffffffffffffffffff021916908373ffffffffffffffffffffffffffffffffffffffff160217905550620015076040518060400160405280600c81526020017f6574685f726f707374656e330000000000000000000000000000000000000000815250620019f460201b60201c565b6001905062001936565b60006200153873b7a07bcf2ba2f2703b24c0691b5278999c59ac7e62000db260201b60201c565b1115620015e45773b7a07bcf2ba2f2703b24c0691b5278999c59ac7e600160006101000a81548173ffffffffffffffffffffffffffffffffffffffff021916908373ffffffffffffffffffffffffffffffffffffffff160217905550620015da6040518060400160405280600981526020017f6574685f6b6f76616e0000000000000000000000000000000000000000000000815250620019f460201b60201c565b6001905062001936565b60006200160b73146500cfd35b22e4a392fe0adc06de1a1368ed4862000db260201b60201c565b1115620016b75773146500cfd35b22e4a392fe0adc06de1a1368ed48600160006101000a81548173ffffffffffffffffffffffffffffffffffffffff021916908373ffffffffffffffffffffffffffffffffffffffff160217905550620016ad6040518060400160405280600b81526020017f6574685f72696e6b656279000000000000000000000000000000000000000000815250620019f460201b60201c565b6001905062001936565b6000620016de73a2998efd205fb9d4b4963afb70778d6354ad3a4162000db260201b60201c565b11156200178a5773a2998efd205fb9d4b4963afb70778d6354ad3a41600160006101000a81548173ffffffffffffffffffffffffffffffffffffffff021916908373ffffffffffffffffffffffffffffffffffffffff160217905550620017806040518060400160405280600a81526020017f6574685f676f65726c6900000000000000000000000000000000000000000000815250620019f460201b60201c565b6001905062001936565b6000620017b1736f485c8bf6fc43ea212e93bbf8ce046c7f1cb47562000db260201b60201c565b11156200181757736f485c8bf6fc43ea212e93bbf8ce046c7f1cb475600160006101000a81548173ffffffffffffffffffffffffffffffffffffffff021916908373ffffffffffffffffffffffffffffffffffffffff1602179055506001905062001936565b60006200183e7320e12a1f859b3feae5fb2a0a32c18f5a65555bbf62000db260201b60201c565b1115620018a4577320e12a1f859b3feae5fb2a0a32c18f5a65555bbf600160006101000a81548173ffffffffffffffffffffffffffffffffffffffff021916908373ffffffffffffffffffffffffffffffffffffffff1602179055506001905062001936565b6000620018cb7351efaf4c8b3c9afbd5ab9f4bbc82784ab6ef8faa62000db260201b60201c565b111562001931577351efaf4c8b3c9afbd5ab9f4bbc82784ab6ef8faa600160006101000a81548173ffffffffffffffffffffffffffffffffffffffff021916908373ffffffffffffffffffffffffffffffffffffffff1602179055506001905062001936565b600090505b90565b60606200194b62001a1060201b60201c565b6200195562001e75565b6200196e8161040062001a1c60201b620023f01760201c565b620019848162001a6960201b6200243a1760201c565b60008090505b8351811015620019d057620019c2848281518110620019a557fe5b60200260200101518362001a7f60201b620024481790919060201c565b80806001019150506200198a565b50620019e78162001ab360201b6200246d1760201c565b8060000151915050919050565b806002908051906020019062001a0c92919062001e8f565b5050565b60405180590338823950565b600081905060006020828162001a2e57fe5b061462001a49576020818162001a4057fe5b06602003810190505b808360200181815250506040518084526000815281810160405250505050565b62001a7c81600462001ac960201b60201c565b50565b62001a94826002835162001af160201b60201c565b62001aae818362001c7960201b620025dc1790919060201c565b505050565b62001ac681600762001ac960201b60201c565b50565b62001aed601f60058360ff16901b178362001d3960201b620026871790919060201c565b5050565b6017811162001b265762001b208160058460ff16901b60ff16178462001d3960201b620026871790919060201c565b62001c74565b60ff811162001b775762001b53601860058460ff16901b178462001d3960201b620026871790919060201c565b62001b708160018562001d8260201b620026c7179092919060201c565b5062001c73565b61ffff811162001bc95762001ba5601960058460ff16901b178462001d3960201b620026871790919060201c565b62001bc28160028562001d8260201b620026c7179092919060201c565b5062001c72565b63ffffffff811162001c1d5762001bf9601a60058460ff16901b178462001d3960201b620026871790919060201c565b62001c168160048562001d8260201b620026c7179092919060201c565b5062001c71565b67ffffffffffffffff811162001c705762001c51601b60058460ff16901b178462001d3960201b620026871790919060201c565b62001c6e8160088562001d8260201b620026c7179092919060201c565b505b5b5b5b5b505050565b62001c8362001e75565b8260200151836000015151835101111562001cc45762001cc383600262001cb68660200151865162001dfc60201b60201c565b0262001e1a60201b60201c565b5b60008060008451905085518051602081830101945086518101825260208701935050505b6020811062001d0d578151835260208301925060208201915060208103905062001ce8565b60006001826020036101000a039050801983511681855116818117865250508694505050505092915050565b8160200151600183600001515101111562001d685762001d6782600284602001510262001e1a60201b60201c565b5b815180516020818301018381536001820183525050505050565b62001d8c62001e75565b83602001518460000151518301111562001dcb5762001dca84600262001dbd87602001518662001dfc60201b60201c565b0262001e1a60201b60201c565b5b60006001836101000a0390508451805184818301018684198251161781528582018352505050849150509392505050565b60008183111562001e105782905062001e14565b8190505b92915050565b60608260000151905062001e35838362001a1c60201b60201c565b62001e47838262001c7960201b60201c565b50505050565b60405180608001604052806004905b606081526020019060019003908162001e5c5790505090565b604051806040016040528060608152602001600081525090565b828054600181600116156101000203166002900490600052602060002090601f016020900481019282601f1062001ed257805160ff191683800117855562001f03565b8280016001018555821562001f03579182015b8281111562001f0257825182559160200191906001019062001ee5565b5b50905062001f12919062001f16565b5090565b62001f3b91905b8082111562001f3757600081600090555060010162001f1d565b5090565b90565b6128ea8062001f4e6000396000f3fe6080604052600436106100555760003560e01c806325b814f41461005a57806327dc297e1461007157806338bbfa5014610143578063a2e62045146102ac578063dc34b0aa146102b6578063fbddd14b146102e1575b600080fd5b34801561006657600080fd5b5061006f61030c565b005b34801561007d57600080fd5b506101416004803603604081101561009457600080fd5b8101908080359060200190929190803590602001906401000000008111156100bb57600080fd5b8201836020820111156100cd57600080fd5b803590602001918460018302840111640100000000831117156100ef57600080fd5b91908080601f016020809104026020016040519081016040528093929190818152602001838380828437600081840152601f19601f8201169050808301925050505050505091929192905050506104ae565b005b34801561014f57600080fd5b506102aa6004803603606081101561016657600080fd5b81019080803590602001909291908035906020019064010000000081111561018d57600080fd5b82018360208201111561019f57600080fd5b803590602001918460018302840111640100000000831117156101c157600080fd5b91908080601f016020809104026020016040519081016040528093929190818152602001838380828437600081840152601f19601f8201169050808301925050505050505091929192908035906020019064010000000081111561022457600080fd5b82018360208201111561023657600080fd5b8035906020019184600183028401116401000000008311171561025857600080fd5b91908080601f016020809104026020016040519081016040528093929190818152602001838380828437600081840152601f19601f8201169050808301925050505050505091929192905050506104f1565b005b6102b4610660565b005b3480156102c257600080fd5b506102cb6106cd565b6040518082815260200191505060405180910390f35b3480156102ed57600080fd5b506102f66106d3565b6040518082815260200191505060405180910390f35b60006103166106d3565b905061032061276d565b600760003373ffffffffffffffffffffffffffffffffffffffff1673ffffffffffffffffffffffffffffffffffffffff16815260200190815260200160002060030160009054906101000a900460ff166104115761037c61078a565b8160000181815250506001816060019015159081151581525050818160200181815250506103a9816107a2565b6008339080600181540180825580915050600190039060005260206000200160009091909190916101000a81548173ffffffffffffffffffffffffffffffffffffffff021916908373ffffffffffffffffffffffffffffffffffffffff1602179055506104aa565b600760003373ffffffffffffffffffffffffffffffffffffffff1673ffffffffffffffffffffffffffffffffffffffff1681526020019081526020016000206040518060800160405290816000820154815260200160018201548152602001600282015481526020016003820160009054906101000a900460ff1615151515815250509050818160200181815250506104a98161082c565b5b5050565b6104ed828260006040519080825280601f01601f1916602001820160405280156104e75781602001600182028038833980820191505090505b506104f1565b5050565b6104f96108b6565b73ffffffffffffffffffffffffffffffffffffffff163373ffffffffffffffffffffffffffffffffffffffff1614610599576040517f08c379a00000000000000000000000000000000000000000000000000000000081526004018080602001828103825260058152602001807f4572726f7200000000000000000000000000000000000000000000000000000081525060200191505060405180910390fd5b60006002836040516020018082805190602001908083835b602083106105d457805182526020820191506020810190506020830392506105b1565b6001836020036101000a0380198251168184511680821785525050505050509050019150506040516020818303038152906040528051906020012060001c8161061957fe5b069050806005819055507fc13d60fe9dffdb6908d2d446cd18134373a51db0738ee04f296eeb9128121cbc816040518082815260200191505060405180910390a150505050565b6000809050600062030d409050600061067b83600184610bd5565b90507fc4dc360d0a9c0677a3379ae0a3d81e887f761e65fdf3d7e00859d1bcd3c473896040518080602001828103825260348152602001806128816034913960400191505060405180910390a1505050565b60055481565b60008060405180807f7465737400000000000000000000000000000000000000000000000000000000815250600401905060405180910390209050610783816040518060400160405280600181526020017f31000000000000000000000000000000000000000000000000000000000000008152506040518060400160405280600481526020017f74657374000000000000000000000000000000000000000000000000000000008152506104f1565b8091505090565b60006006600081548092919060010191905055905090565b600033905081600760008373ffffffffffffffffffffffffffffffffffffffff1673ffffffffffffffffffffffffffffffffffffffff16815260200190815260200160002060008201518160000155602082015181600101556040820151816002015560608201518160030160006101000a81548160ff0219169083151502179055509050505050565b600033905081600760008373ffffffffffffffffffffffffffffffffffffffff1673ffffffffffffffffffffffffffffffffffffffff16815260200190815260200160002060008201518160000155602082015181600101556040820151816002015560608201518160030160006101000a81548160ff0219169083151502179055509050505050565b60008073ffffffffffffffffffffffffffffffffffffffff16600160009054906101000a900473ffffffffffffffffffffffffffffffffffffffff1673ffffffffffffffffffffffffffffffffffffffff16148061093e5750600061093c600160009054906101000a900473ffffffffffffffffffffffffffffffffffffffff16611170565b145b1561094f5761094d600061117b565b505b600160009054906101000a900473ffffffffffffffffffffffffffffffffffffffff1673ffffffffffffffffffffffffffffffffffffffff166338cc48316040518163ffffffff1660e01b8152600401602060405180830381600087803b1580156109b957600080fd5b505af11580156109cd573d6000803e3d6000fd5b505050506040513d60208110156109e357600080fd5b810190808051906020019092919050505073ffffffffffffffffffffffffffffffffffffffff166000809054906101000a900473ffffffffffffffffffffffffffffffffffffffff1673ffffffffffffffffffffffffffffffffffffffff1614610b2c57600160009054906101000a900473ffffffffffffffffffffffffffffffffffffffff1673ffffffffffffffffffffffffffffffffffffffff166338cc48316040518163ffffffff1660e01b8152600401602060405180830381600087803b158015610ab157600080fd5b505af1158015610ac5573d6000803e3d6000fd5b505050506040513d6020811015610adb57600080fd5b81019080805190602001909291905050506000806101000a81548173ffffffffffffffffffffffffffffffffffffffff021916908373ffffffffffffffffffffffffffffffffffffffff1602179055505b6000809054906101000a900473ffffffffffffffffffffffffffffffffffffffff1673ffffffffffffffffffffffffffffffffffffffff1663c281d19e6040518163ffffffff1660e01b8152600401602060405180830381600087803b158015610b9557600080fd5b505af1158015610ba9573d6000803e3d6000fd5b505050506040513d6020811015610bbf57600080fd5b8101908080519060200190929190505050905090565b60008083118015610be7575060208311155b610bf057600080fd5b600a84029350606060016040519080825280601f01601f191660200182016040528015610c2c5781602001600182028038833980820191505090505b5090508360f81b81600081518110610c4057fe5b60200101907effffffffffffffffffffffffffffffffffffffffffffffffffffffffffffff1916908160001a905350606060206040519080825280601f01601f191660200182016040528015610ca55781602001600182028038833980820191505090505b509050606060206040519080825280601f01601f191660200182016040528015610cde5781602001600182028038833980820191505090505b5090506000610ceb61118c565b905060208352424118600143034018602084015260208252806020830152606060206040519080825280601f01601f191660200182016040528015610d3f5781602001600182028038833980820191505090505b509050886020820152606060086040519080825280601f01601f191660200182016040528015610d7e5781602001600182028038833980820191505090505b509050610d9182601860088460006114a9565b50610d9a61279a565b60405180608001604052808781526020018881526020018681526020018481525090506000610dff6040518060400160405280600681526020017f72616e646f6d0000000000000000000000000000000000000000000000000000815250838c611508565b9050606060086040519080825280601f01601f191660200182016040528015610e375781602001600182028038833980820191505090505b50905060208401517f0100000000000000000000000000000000000000000000000000000000000000810460278301537e01000000000000000000000000000000000000000000000000000000000000810460268301537d010000000000000000000000000000000000000000000000000000000000810460258301537c0100000000000000000000000000000000000000000000000000000000810460248301537b01000000000000000000000000000000000000000000000000000000810460238301537a01000000000000000000000000000000000000000000000000000081046022830153790100000000000000000000000000000000000000000000000000810460218301537801000000000000000000000000000000000000000000000000810460208301535061115d828285600160048110610f7657fe5b6020020151600287600060048110610f8a57fe5b60200201516040518082805190602001908083835b60208310610fc25780518252602082019150602081019050602083039250610f9f565b6001836020036101000a038019825116818451168082178552505050505050905001915050602060405180830381855afa158015611004573d6000803e3d6000fd5b5050506040513d602081101561101957600080fd5b81019080805190602001909291905050508760026004811061103757fe5b60200201516040516020018085805190602001908083835b60208310611072578051825260208201915060208101905060208303925061104f565b6001836020036101000a03801982511681845116808217855250505050505090500184805190602001908083835b602083106110c357805182526020820191506020810190506020830392506110a0565b6001836020036101000a03801982511681845116808217855250505050505090500183815260200182805190602001908083835b6020831061111a57805182526020820191506020810190506020830392506110f7565b6001836020036101000a03801982511681845116808217855250505050505090500194505050505060405160208183030381529060405280519060200120611875565b8199505050505050505050509392505050565b6000813b9050919050565b6000611185611891565b9050919050565b60008073ffffffffffffffffffffffffffffffffffffffff16600160009054906101000a900473ffffffffffffffffffffffffffffffffffffffff1673ffffffffffffffffffffffffffffffffffffffff16148061121457506000611212600160009054906101000a900473ffffffffffffffffffffffffffffffffffffffff16611170565b145b1561122557611223600061117b565b505b600160009054906101000a900473ffffffffffffffffffffffffffffffffffffffff1673ffffffffffffffffffffffffffffffffffffffff166338cc48316040518163ffffffff1660e01b8152600401602060405180830381600087803b15801561128f57600080fd5b505af11580156112a3573d6000803e3d6000fd5b505050506040513d60208110156112b957600080fd5b810190808051906020019092919050505073ffffffffffffffffffffffffffffffffffffffff166000809054906101000a900473ffffffffffffffffffffffffffffffffffffffff1673ffffffffffffffffffffffffffffffffffffffff161461140257600160009054906101000a900473ffffffffffffffffffffffffffffffffffffffff1673ffffffffffffffffffffffffffffffffffffffff166338cc48316040518163ffffffff1660e01b8152600401602060405180830381600087803b15801561138757600080fd5b505af115801561139b573d6000803e3d6000fd5b505050506040513d60208110156113b157600080fd5b81019080805190602001909291905050506000806101000a81548173ffffffffffffffffffffffffffffffffffffffff021916908373ffffffffffffffffffffffffffffffffffffffff1602179055505b6000809054906101000a900473ffffffffffffffffffffffffffffffffffffffff1673ffffffffffffffffffffffffffffffffffffffff1663abaa5f3e6040518163ffffffff1660e01b815260040160206040518083038186803b15801561146957600080fd5b505afa15801561147d573d6000803e3d6000fd5b505050506040513d602081101561149357600080fd5b8101908080519060200190929190505050905090565b60606000828501905080845110156114c057600080fd5b600086602001905060008460200190505b8688602001018210156114f957818901518082880152506020820191506020810190506114d1565b85935050505095945050505050565b60008073ffffffffffffffffffffffffffffffffffffffff16600160009054906101000a900473ffffffffffffffffffffffffffffffffffffffff1673ffffffffffffffffffffffffffffffffffffffff1614806115905750600061158e600160009054906101000a900473ffffffffffffffffffffffffffffffffffffffff16611170565b145b156115a15761159f600061117b565b505b600160009054906101000a900473ffffffffffffffffffffffffffffffffffffffff1673ffffffffffffffffffffffffffffffffffffffff166338cc48316040518163ffffffff1660e01b8152600401602060405180830381600087803b15801561160b57600080fd5b505af115801561161f573d6000803e3d6000fd5b505050506040513d602081101561163557600080fd5b810190808051906020019092919050505073ffffffffffffffffffffffffffffffffffffffff166000809054906101000a900473ffffffffffffffffffffffffffffffffffffffff1673ffffffffffffffffffffffffffffffffffffffff161461177e57600160009054906101000a900473ffffffffffffffffffffffffffffffffffffffff1673ffffffffffffffffffffffffffffffffffffffff166338cc48316040518163ffffffff1660e01b8152600401602060405180830381600087803b15801561170357600080fd5b505af1158015611717573d6000803e3d6000fd5b505050506040513d602081101561172d57600080fd5b81019080805190602001909291905050506000806101000a81548173ffffffffffffffffffffffffffffffffffffffff021916908373ffffffffffffffffffffffffffffffffffffffff1602179055505b606060046040519080825280602002602001820160405280156117b557816020015b60608152602001906001900390816117a05790505b509050836000600481106117c557fe5b6020020151816000815181106117d757fe5b6020026020010181905250836001600481106117ef57fe5b60200201518160018151811061180157fe5b60200260200101819052508360026004811061181957fe5b60200201518160028151811061182b57fe5b60200260200101819052508360036004811061184357fe5b60200201518160038151811061185557fe5b602002602001018190525061186b858285611de8565b9150509392505050565b8060036000848152602001908152602001600020819055505050565b6000806118b1731d3b2638a7cc9f2cb3d298a3da7a90b67e5506ed611170565b111561195357731d3b2638a7cc9f2cb3d298a3da7a90b67e5506ed600160006101000a81548173ffffffffffffffffffffffffffffffffffffffff021916908373ffffffffffffffffffffffffffffffffffffffff16021790555061194a6040518060400160405280600b81526020017f6574685f6d61696e6e657400000000000000000000000000000000000000000081525061234a565b60019050611de5565b600061197273c03a2615d5efaf5f49f60b7bb6583eaec212fdf1611170565b1115611a145773c03a2615d5efaf5f49f60b7bb6583eaec212fdf1600160006101000a81548173ffffffffffffffffffffffffffffffffffffffff021916908373ffffffffffffffffffffffffffffffffffffffff160217905550611a0b6040518060400160405280600c81526020017f6574685f726f707374656e33000000000000000000000000000000000000000081525061234a565b60019050611de5565b6000611a3373b7a07bcf2ba2f2703b24c0691b5278999c59ac7e611170565b1115611ad55773b7a07bcf2ba2f2703b24c0691b5278999c59ac7e600160006101000a81548173ffffffffffffffffffffffffffffffffffffffff021916908373ffffffffffffffffffffffffffffffffffffffff160217905550611acc6040518060400160405280600981526020017f6574685f6b6f76616e000000000000000000000000000000000000000000000081525061234a565b60019050611de5565b6000611af473146500cfd35b22e4a392fe0adc06de1a1368ed48611170565b1115611b965773146500cfd35b22e4a392fe0adc06de1a1368ed48600160006101000a81548173ffffffffffffffffffffffffffffffffffffffff021916908373ffffffffffffffffffffffffffffffffffffffff160217905550611b8d6040518060400160405280600b81526020017f6574685f72696e6b65627900000000000000000000000000000000000000000081525061234a565b60019050611de5565b6000611bb573a2998efd205fb9d4b4963afb70778d6354ad3a41611170565b1115611c575773a2998efd205fb9d4b4963afb70778d6354ad3a41600160006101000a81548173ffffffffffffffffffffffffffffffffffffffff021916908373ffffffffffffffffffffffffffffffffffffffff160217905550611c4e6040518060400160405280600a81526020017f6574685f676f65726c690000000000000000000000000000000000000000000081525061234a565b60019050611de5565b6000611c76736f485c8bf6fc43ea212e93bbf8ce046c7f1cb475611170565b1115611cda57736f485c8bf6fc43ea212e93bbf8ce046c7f1cb475600160006101000a81548173ffffffffffffffffffffffffffffffffffffffff021916908373ffffffffffffffffffffffffffffffffffffffff16021790555060019050611de5565b6000611cf97320e12a1f859b3feae5fb2a0a32c18f5a65555bbf611170565b1115611d5d577320e12a1f859b3feae5fb2a0a32c18f5a65555bbf600160006101000a81548173ffffffffffffffffffffffffffffffffffffffff021916908373ffffffffffffffffffffffffffffffffffffffff16021790555060019050611de5565b6000611d7c7351efaf4c8b3c9afbd5ab9f4bbc82784ab6ef8faa611170565b1115611de0577351efaf4c8b3c9afbd5ab9f4bbc82784ab6ef8faa600160006101000a81548173ffffffffffffffffffffffffffffffffffffffff021916908373ffffffffffffffffffffffffffffffffffffffff16021790555060019050611de5565b600090505b90565b60008073ffffffffffffffffffffffffffffffffffffffff16600160009054906101000a900473ffffffffffffffffffffffffffffffffffffffff1673ffffffffffffffffffffffffffffffffffffffff161480611e7057506000611e6e600160009054906101000a900473ffffffffffffffffffffffffffffffffffffffff16611170565b145b15611e8157611e7f600061117b565b505b600160009054906101000a900473ffffffffffffffffffffffffffffffffffffffff1673ffffffffffffffffffffffffffffffffffffffff166338cc48316040518163ffffffff1660e01b8152600401602060405180830381600087803b158015611eeb57600080fd5b505af1158015611eff573d6000803e3d6000fd5b505050506040513d6020811015611f1557600080fd5b810190808051906020019092919050505073ffffffffffffffffffffffffffffffffffffffff166000809054906101000a900473ffffffffffffffffffffffffffffffffffffffff1673ffffffffffffffffffffffffffffffffffffffff161461205e57600160009054906101000a900473ffffffffffffffffffffffffffffffffffffffff1673ffffffffffffffffffffffffffffffffffffffff166338cc48316040518163ffffffff1660e01b8152600401602060405180830381600087803b158015611fe357600080fd5b505af1158015611ff7573d6000803e3d6000fd5b505050506040513d602081101561200d57600080fd5b81019080805190602001909291905050506000806101000a81548173ffffffffffffffffffffffffffffffffffffffff021916908373ffffffffffffffffffffffffffffffffffffffff1602179055505b60008060009054906101000a900473ffffffffffffffffffffffffffffffffffffffff1673ffffffffffffffffffffffffffffffffffffffff16632ef3accc86856040518363ffffffff1660e01b81526004018080602001838152602001828103825284818151815260200191508051906020019080838360005b838110156120f45780820151818401526020810190506120d9565b50505050905090810190601f1680156121215780820380516001836020036101000a031916815260200191505b509350505050602060405180830381600087803b15801561214157600080fd5b505af1158015612155573d6000803e3d6000fd5b505050506040513d602081101561216b57600080fd5b81019080805190602001909291905050509050823a02670de0b6b3a76400000181111561219e576000801b915050612343565b60606121a985612364565b90506000809054906101000a900473ffffffffffffffffffffffffffffffffffffffff1673ffffffffffffffffffffffffffffffffffffffff1663c55c1cb68360008985896040518663ffffffff1660e01b8152600401808581526020018060200180602001848152602001838103835286818151815260200191508051906020019080838360005b8381101561224d578082015181840152602081019050612232565b50505050905090810190601f16801561227a5780820380516001836020036101000a031916815260200191505b50838103825285818151815260200191508051906020019080838360005b838110156122b3578082015181840152602081019050612298565b50505050905090810190601f1680156122e05780820380516001836020036101000a031916815260200191505b5096505050505050506020604051808303818588803b15801561230257600080fd5b505af1158015612316573d6000803e3d6000fd5b50505050506040513d602081101561232d57600080fd5b8101908080519060200190929190505050925050505b9392505050565b80600290805190602001906123609291906127c1565b5050565b606061236e6123e4565b612376612841565b612382816104006123f0565b61238b8161243a565b60008090505b83518110156123cd576123c08482815181106123a957fe5b60200260200101518361244890919063ffffffff16565b8080600101915050612391565b506123d78161246d565b8060000151915050919050565b60405180590338823950565b600081905060006020828161240157fe5b061461241a576020818161241157fe5b06602003810190505b808360200181815250506040518084526000815281810160405250505050565b61244581600461247b565b50565b612455826002835161249c565b61246881836125dc90919063ffffffff16565b505050565b61247881600761247b565b50565b612498601f60058360ff16901b178361268790919063ffffffff16565b5050565b601781116124c8576124c38160058460ff16901b60ff16178461268790919063ffffffff16565b6125d7565b60ff8111612509576124ed601860058460ff16901b178461268790919063ffffffff16565b612503816001856126c79092919063ffffffff16565b506125d6565b61ffff811161254b5761252f601960058460ff16901b178461268790919063ffffffff16565b612545816002856126c79092919063ffffffff16565b506125d5565b63ffffffff811161258f57612573601a60058460ff16901b178461268790919063ffffffff16565b612589816004856126c79092919063ffffffff16565b506125d4565b67ffffffffffffffff81116125d3576125bb601b60058460ff16901b178461268790919063ffffffff16565b6125d1816008856126c79092919063ffffffff16565b505b5b5b5b5b505050565b6125e4612841565b826020015183600001515183510111156126145761261383600261260d8660200151865161272e565b0261274a565b5b60008060008451905085518051602081830101945086518101825260208701935050505b6020811061265b5781518352602083019250602082019150602081039050612638565b60006001826020036101000a039050801983511681855116818117865250508694505050505092915050565b816020015160018360000151510111156126ad576126ac82600284602001510261274a565b5b815180516020818301018381536001820183525050505050565b6126cf612841565b8360200151846000015151830111156126fd576126fc8460026126f687602001518661272e565b0261274a565b5b60006001836101000a0390508451805184818301018684198251161781528582018352505050849150509392505050565b60008183111561274057829050612744565b8190505b92915050565b60608260000151905061275d83836123f0565b61276783826125dc565b50505050565b60405180608001604052806000815260200160008019168152602001600081526020016000151581525090565b60405180608001604052806004905b60608152602001906001900390816127a95790505090565b828054600181600116156101000203166002900490600052602060002090601f016020900481019282601f1061280257805160ff1916838001178555612830565b82800160010185558215612830579182015b8281111561282f578251825591602001919060010190612814565b5b50905061283d919061285b565b5090565b604051806040016040528060608152602001600081525090565b61287d91905b80821115612879576000816000905550600101612861565b5090565b9056fe50726f7661626c65207175657279207761732073656e742c207374616e64696e6720627920666f722074686520616e737765722ea2646970667358221220f8abfdd5baf82704450bf8de5292def23a41cee0f8e86d9927b8e5dceeba831b64736f6c6343000602003350726f7661626c65207175657279207761732073656e742c207374616e64696e6720627920666f722074686520616e737765722e50726f7661626c65207175657279207761732073656e742c207374616e64696e6720627920666f722074686520616e737765722e",
  "source": "pragma solidity 0.6.2;\r\nimport \"./Ownable.sol\";\r\nimport \"./Random.sol\";\r\n\r\n// 1. Make multiple users play game\r\n\r\ncontract PlayerContr is Random{\r\n\r\n  struct Player {\r\n  uint id;\r\n  bytes32 queryId;\r\n  uint balance;\r\n  bool exists;\r\n}\r\n\r\nuint private playerId;\r\n\r\n\r\nmapping (address => Player) private players;\r\naddress[] private playerAddresses;\r\n\r\nfunction getRandomNum() public\r\n{\r\n  bytes32 queryId = testRandom();\r\n  Player memory player;\r\n  if(!players[msg.sender].exists){\r\n      player.id = getPlayerId();\r\n      player.exists = true;\r\n      player.queryId = queryId;\r\n      insertPlayer(player);\r\n      playerAddresses.push(msg.sender);\r\n  }else\r\n  {\r\n    player = players[msg.sender];\r\n    player.queryId = queryId;\r\n    updatePlayer(player);\r\n  }\r\n}\r\n\r\n  function getPlayerId() private returns (uint) {\r\n    return playerId++;\r\n  }\r\n\r\n   function insertPlayer(Player memory player) private {\r\n        address creator = msg.sender;\r\n        players[creator] = player;\r\n    }\r\n\r\n     function updatePlayer(Player memory player) private {\r\n        address creator = msg.sender;\r\n        players[creator] = player;\r\n    }\r\n}\r\n\r\ncontract CoinFlip is Ownable, PlayerContr{\r\n PlayerContr playerContr;\r\n event placedBet(address user, uint bet, bool success);\r\n event error(string reason);\r\n event lowLevelError(bytes lowLevelData);\r\n\r\n uint public balance;\r\n\r\n  constructor(uint initialSupply) public payable{\r\n     balance = initialSupply;\r\n        playerContr = new PlayerContr();\r\n    }\r\n\r\n  modifier costs(uint cost){\r\n      require(msg.value >= cost,\"Error\");\r\n      _;\r\n  }\r\n\r\n  function getRandom() public payable costs(0.05 ether) returns(bool){\r\n    require(address(this).balance >= msg.value, \"Not enough funds!\");\r\n    try playerContr.getRandomNum(){\r\n      return true;\r\n    }catch Error(string memory reason) {\r\n        // This is executed in case\r\n        // revert was called inside getData\r\n        // and a reason string was provided.\r\n        emit error(reason);\r\n        return false;\r\n    } catch (bytes memory lowLevelData) {\r\n        // This is executed in case revert() was used\r\n        // or there was a failing assertion, division\r\n        // by zero, etc. inside getData.\r\n        emit lowLevelError(lowLevelData);\r\n        return false;\r\n    }\r\n  }\r\n\r\n  \r\n\r\n  function flipCoin(uint256 randomNum) public payable costs(0.05 ether)  returns(bool){\r\n    bool success = false;\r\n    if(randomNum % 2 == 1)\r\n    {\r\n      success = true;\r\n      balance -= msg.value;\r\n      msg.sender.transfer(msg.value * 2);\r\n    }else {\r\n      balance += msg.value;\r\n    }\r\n\r\n    emit placedBet(msg.sender, msg.value, success);\r\n\r\n   return success;\r\n  }\r\n\r\n \r\n}\r\n",
  "sourcePath": "C:/Users/Slaven/source/repos/flip-coin/contracts/CoinFlip.sol",
  "compiler": {
    "name": "solc",
    "version": "0.6.2+commit.bacdbe57.Emscripten.clang"
  },
  "schemaVersion": "3.2.2",
  "updatedAt": "2020-07-20T14:37:36.648Z",
  "devdoc": {
    "methods": {
      "__callback(bytes32,string)": {
        "details": "The following `__callback` functions are just placeholders ideally     meant to be defined in child contract when proofs are used.     The function bodies simply silence compiler warnings."
      }
    }
  },
  "userdoc": {
    "methods": {}
  }
}