{
  "contractName": "Ownable",
  "abi": [
    {
      "inputs": [],
      "stateMutability": "nonpayable",
      "type": "constructor"
    },
    {
      "inputs": [],
      "name": "owner",
      "outputs": [
        {
          "internalType": "address",
          "name": "",
          "type": "address"
        }
      ],
      "stateMutability": "view",
      "type": "function"
    }
  ],
  "bytecode": "0x608060405234801561001057600080fd5b50336000806101000a81548173ffffffffffffffffffffffffffffffffffffffff021916908373ffffffffffffffffffffffffffffffffffffffff16021790555060d08061005f6000396000f3fe6080604052348015600f57600080fd5b506004361060285760003560e01c80638da5cb5b14602d575b600080fd5b60336075565b604051808273ffffffffffffffffffffffffffffffffffffffff1673ffffffffffffffffffffffffffffffffffffffff16815260200191505060405180910390f35b6000809054906101000a900473ffffffffffffffffffffffffffffffffffffffff168156fea2646970667358221220dc9abd1062dccb66d0605fea009ce96b6784dd1e77d7550006207dfb6f82a8a564736f6c63430006020033",
  "source": "pragma solidity 0.6.2;\r\n\r\ncontract Ownable{\r\n    address public owner;\r\n\r\n    modifier onlyOwner(){\r\n        require(msg.sender == owner);\r\n        _; //Continue execution\r\n    }\r\n\r\n    constructor() public{\r\n        owner = msg.sender;\r\n    }\r\n}\r\n",
  "sourcePath": "C:\\Users\\Slaven\\source\\repos\\flip-coin\\contracts\\Ownable.sol",
  "compiler": {
    "name": "solc",
    "version": "0.6.2+commit.bacdbe57.Emscripten.clang"
  },
  "schemaVersion": "3.2.2",
  "updatedAt": "2020-07-20T14:42:04.018Z",
  "devdoc": {
    "methods": {}
  },
  "userdoc": {
    "methods": {}
  }
}