{
  "contractName": "PlayerContr",
  "abi": [
    {
      "anonymous": false,
      "inputs": [
        {
          "indexed": false,
          "internalType": "string",
          "name": "description",
          "type": "string"
        }
      ],
      "name": "LogNewProvableQuery",
      "type": "event"
    },
    {
      "anonymous": false,
      "inputs": [
        {
          "indexed": false,
          "internalType": "uint256",
          "name": "randomNumber",
          "type": "uint256"
        }
      ],
      "name": "generatedRandomNumber",
      "type": "event"
    },
    {
      "inputs": [
        {
          "internalType": "bytes32",
          "name": "_myid",
          "type": "bytes32"
        },
        {
          "internalType": "string",
          "name": "_result",
          "type": "string"
        }
      ],
      "name": "__callback",
      "outputs": [],
      "stateMutability": "nonpayable",
      "type": "function"
    },
    {
      "inputs": [
        {
          "internalType": "bytes32",
          "name": "_myid",
          "type": "bytes32"
        },
        {
          "internalType": "string",
          "name": "_result",
          "type": "string"
        },
        {
          "internalType": "bytes",
          "name": "_proof",
          "type": "bytes"
        }
      ],
      "name": "__callback",
      "outputs": [],
      "stateMutability": "nonpayable",
      "type": "function"
    },
    {
      "inputs": [
        {
          "internalType": "string",
          "name": "_result",
          "type": "string"
        }
      ],
      "name": "__callback",
      "outputs": [],
      "stateMutability": "nonpayable",
      "type": "function"
    },
    {
      "inputs": [],
      "name": "latestNumber",
      "outputs": [
        {
          "internalType": "uint256",
          "name": "",
          "type": "uint256"
        }
      ],
      "stateMutability": "view",
      "type": "function"
    },
    {
      "inputs": [],
      "name": "testRandom",
      "outputs": [
        {
          "internalType": "bytes32",
          "name": "",
          "type": "bytes32"
        }
      ],
      "stateMutability": "nonpayable",
      "type": "function"
    },
    {
      "inputs": [],
      "name": "getRandomNum",
      "outputs": [],
      "stateMutability": "nonpayable",
      "type": "function"
    }
  ],
  "bytecode": "0x6080604052610856806100136000396000f3fe608060405234801561001057600080fd5b50600436106100625760003560e01c806325b814f41461006757806327dc297e1461007157806338bbfa5014610136578063dc34b0aa14610292578063e1d8d66a146102b0578063fbddd14b1461036b575b600080fd5b61006f610389565b005b6101346004803603604081101561008757600080fd5b8101908080359060200190929190803590602001906401000000008111156100ae57600080fd5b8201836020820111156100c057600080fd5b803590602001918460018302840111640100000000831117156100e257600080fd5b91908080601f016020809104026020016040519081016040528093929190818152602001838380828437600081840152601f19601f82011690508083019250505050505050919291929050505061052b565b005b6102906004803603606081101561014c57600080fd5b81019080803590602001909291908035906020019064010000000081111561017357600080fd5b82018360208201111561018557600080fd5b803590602001918460018302840111640100000000831117156101a757600080fd5b91908080601f016020809104026020016040519081016040528093929190818152602001838380828437600081840152601f19601f8201169050808301925050505050505091929192908035906020019064010000000081111561020a57600080fd5b82018360208201111561021c57600080fd5b8035906020019184600183028401116401000000008311171561023e57600080fd5b91908080601f016020809104026020016040519081016040528093929190818152602001838380828437600081840152601f19601f82011690508083019250505050505050919291929050505061056e565b005b61029a610591565b6040518082815260200191505060405180910390f35b610369600480360360208110156102c657600080fd5b81019080803590602001906401000000008111156102e357600080fd5b8201836020820111156102f557600080fd5b8035906020019184600183028401116401000000008311171561031757600080fd5b91908080601f016020809104026020016040519081016040528093929190818152602001838380828437600081840152601f19601f820116905080830192505050505050509192919290505050610597565b005b61037361065c565b6040518082815260200191505060405180910390f35b600061039361065c565b905061039d6107f3565b600760003373ffffffffffffffffffffffffffffffffffffffff1673ffffffffffffffffffffffffffffffffffffffff16815260200190815260200160002060030160009054906101000a900460ff1661048e576103f96106c7565b816000018181525050600181606001901515908115158152505081816020018181525050610426816106df565b6008339080600181540180825580915050600190039060005260206000200160009091909190916101000a81548173ffffffffffffffffffffffffffffffffffffffff021916908373ffffffffffffffffffffffffffffffffffffffff160217905550610527565b600760003373ffffffffffffffffffffffffffffffffffffffff1673ffffffffffffffffffffffffffffffffffffffff1681526020019081526020016000206040518060800160405290816000820154815260200160018201548152602001600282015481526020016003820160009054906101000a900460ff16151515158152505090508181602001818152505061052681610769565b5b5050565b61056a828260006040519080825280601f01601f1916602001820160405280156105645781602001600182028038833980820191505090505b5061056e565b5050565b6000801b600360008060001b815260200190815260200160002081905550505050565b60055481565b60006002826040516020018082805190602001908083835b602083106105d257805182526020820191506020810190506020830392506105af565b6001836020036101000a0380198251168184511680821785525050505050509050019150506040516020818303038152906040528051906020012060001c8161061757fe5b069050806005819055507fc13d60fe9dffdb6908d2d446cd18134373a51db0738ee04f296eeb9128121cbc816040518082815260200191505060405180910390a15050565b6000807f746573743132330000000000000000000000000000000000000000000000000090506106c06040518060400160405280600181526020017f3100000000000000000000000000000000000000000000000000000000000000815250610597565b8091505090565b60006006600081548092919060010191905055905090565b600033905081600760008373ffffffffffffffffffffffffffffffffffffffff1673ffffffffffffffffffffffffffffffffffffffff16815260200190815260200160002060008201518160000155602082015181600101556040820151816002015560608201518160030160006101000a81548160ff0219169083151502179055509050505050565b600033905081600760008373ffffffffffffffffffffffffffffffffffffffff1673ffffffffffffffffffffffffffffffffffffffff16815260200190815260200160002060008201518160000155602082015181600101556040820151816002015560608201518160030160006101000a81548160ff0219169083151502179055509050505050565b6040518060800160405280600081526020016000801916815260200160008152602001600015158152509056fea2646970667358221220f54e7be320802fd78535d1ec524308c74195077834acc990ad0f2e2b4b1f32fe64736f6c63430006020033",
  "source": "pragma solidity 0.6.2;\r\nimport \"./Ownable.sol\";\r\nimport \"./Random.sol\";\r\n\r\n// 1. Make multiple users play game\r\n\r\ncontract PlayerContr is Random{\r\n\r\n  struct Player {\r\n  uint id;\r\n  bytes32 queryId;\r\n  uint balance;\r\n  bool exists;\r\n}\r\n\r\nuint private playerId;\r\n\r\n\r\nmapping (address => Player) private players;\r\naddress[] private playerAddresses;\r\n\r\nfunction getRandomNum() public\r\n{\r\n  bytes32 queryId = testRandom();\r\n  Player memory player;\r\n  if(!players[msg.sender].exists){\r\n      player.id = getPlayerId();\r\n      player.exists = true;\r\n      player.queryId = queryId;\r\n      insertPlayer(player);\r\n      playerAddresses.push(msg.sender);\r\n  }else\r\n  {\r\n    player = players[msg.sender];\r\n    player.queryId = queryId;\r\n    updatePlayer(player);\r\n  }\r\n}\r\n\r\n  function getPlayerId() private returns (uint) {\r\n    return playerId++;\r\n  }\r\n\r\n   function insertPlayer(Player memory player) private {\r\n        address creator = msg.sender;\r\n        players[creator] = player;\r\n    }\r\n\r\n     function updatePlayer(Player memory player) private {\r\n        address creator = msg.sender;\r\n        players[creator] = player;\r\n    }\r\n}\r\n\r\ncontract CoinFlip is Ownable, PlayerContr{\r\n PlayerContr playerContr;\r\n event placedBet(address user, uint bet, bool success);\r\n event error(string reason);\r\n event lowLevelError(bytes lowLevelData);\r\n\r\n uint public balance;\r\n\r\n  constructor(uint initialSupply) public payable{\r\n     balance = initialSupply;\r\n        playerContr = new PlayerContr();\r\n    }\r\n\r\n  modifier costs(uint cost){\r\n      require(msg.value >= cost,\"Error\");\r\n      _;\r\n  }\r\n\r\n  function getRandom() public payable costs(0.01 ether) returns(bool){\r\n    require(address(this).balance >= msg.value, \"Not enough funds!\");\r\n    try playerContr.getRandomNum(){\r\n      return true;\r\n    }catch Error(string memory reason) {\r\n        // This is executed in case\r\n        // revert was called inside getData\r\n        // and a reason string was provided.\r\n        emit error(reason);\r\n        return false;\r\n    } catch (bytes memory lowLevelData) {\r\n        // This is executed in case revert() was used\r\n        // or there was a failing assertion, division\r\n        // by zero, etc. inside getData.\r\n        emit lowLevelError(lowLevelData);\r\n        return false;\r\n    }\r\n  }\r\n\r\n  \r\n\r\n  function flipCoin(uint256 randomNum) public payable costs(0.01 ether)  returns(bool){\r\n    bool success = false;\r\n    if(randomNum % 2 == 1)\r\n    {\r\n      success = true;\r\n      balance -= msg.value;\r\n      msg.sender.transfer(msg.value * 2);\r\n    }else {\r\n      balance += msg.value;\r\n    }\r\n\r\n    emit placedBet(msg.sender, msg.value, success);\r\n\r\n   return success;\r\n  }\r\n\r\n \r\n}\r\n",
  "sourcePath": "C:/Users/Slaven/source/repos/flip-coin/contracts/CoinFlip.sol",
  "compiler": {
    "name": "solc",
    "version": "0.6.2+commit.bacdbe57.Emscripten.clang"
  },
  "schemaVersion": "3.2.2",
  "updatedAt": "2020-07-21T07:56:34.997Z",
  "devdoc": {
    "methods": {
      "__callback(bytes32,string)": {
        "details": "The following `__callback` functions are just placeholders ideally     meant to be defined in child contract when proofs are used.     The function bodies simply silence compiler warnings."
      }
    }
  },
  "userdoc": {
    "methods": {}
  }
}