{
  "contractName": "Random",
  "abi": [
    {
      "inputs": [],
      "stateMutability": "nonpayable",
      "type": "constructor"
    },
    {
      "anonymous": false,
      "inputs": [
        {
          "indexed": false,
          "internalType": "string",
          "name": "description",
          "type": "string"
        }
      ],
      "name": "LogNewProvableQuery",
      "type": "event"
    },
    {
      "anonymous": false,
      "inputs": [
        {
          "indexed": false,
          "internalType": "uint256",
          "name": "randomNumber",
          "type": "uint256"
        }
      ],
      "name": "generatedRandomNumber",
      "type": "event"
    },
    {
      "inputs": [],
      "name": "latestNumber",
      "outputs": [
        {
          "internalType": "uint256",
          "name": "",
          "type": "uint256"
        }
      ],
      "stateMutability": "view",
      "type": "function"
    },
    {
      "inputs": [
        {
          "internalType": "bytes32",
          "name": "_myid",
          "type": "bytes32"
        },
        {
          "internalType": "string",
          "name": "_result",
          "type": "string"
        }
      ],
      "name": "__callback",
      "outputs": [],
      "stateMutability": "nonpayable",
      "type": "function"
    },
    {
      "inputs": [
        {
          "internalType": "bytes32",
          "name": "_queryId",
          "type": "bytes32"
        },
        {
          "internalType": "string",
          "name": "_result",
          "type": "string"
        },
        {
          "internalType": "bytes",
          "name": "_proof",
          "type": "bytes"
        }
      ],
      "name": "__callback",
      "outputs": [],
      "stateMutability": "nonpayable",
      "type": "function"
    },
    {
      "inputs": [],
      "name": "update",
      "outputs": [],
      "stateMutability": "payable",
      "type": "function"
    },
    {
      "inputs": [],
      "name": "testRandom",
      "outputs": [
        {
          "internalType": "bytes32",
          "name": "",
          "type": "bytes32"
        }
      ],
      "stateMutability": "nonpayable",
      "type": "function"
    }
  ],
  "bytecode": "0x60806040523480156200001157600080fd5b50620000226200002860201b60201c565b62001f4c565b6000809050600062030d40905060006200004b836001846200009e60201b60201c565b90507fc4dc360d0a9c0677a3379ae0a3d81e887f761e65fdf3d7e00859d1bcd3c47389604051808060200182810382526034815260200180620045296034913960400191505060405180910390a1505050565b60008083118015620000b1575060208311155b620000bb57600080fd5b600a84029350606060016040519080825280601f01601f191660200182016040528015620000f85781602001600182028038833980820191505090505b5090508360f81b816000815181106200010d57fe5b60200101907effffffffffffffffffffffffffffffffffffffffffffffffffffffffffffff1916908160001a905350606060206040519080825280601f01601f191660200182016040528015620001735781602001600182028038833980820191505090505b509050606060206040519080825280601f01601f191660200182016040528015620001ad5781602001600182028038833980820191505090505b5090506000620001c26200067160201b60201c565b905060208352424118600143034018602084015260208252806020830152606060206040519080825280601f01601f191660200182016040528015620002175781602001600182028038833980820191505090505b509050886020820152606060086040519080825280601f01601f191660200182016040528015620002575781602001600182028038833980820191505090505b509050620002728260186008846000620009aa60201b60201c565b506200027d62001e5b565b60405180608001604052808781526020018881526020018681526020018481525090506000620002ea6040518060400160405280600681526020017f72616e646f6d0000000000000000000000000000000000000000000000000000815250838c62000a0c60201b60201c565b9050606060086040519080825280601f01601f191660200182016040528015620003235781602001600182028038833980820191505090505b50905060208401517f0100000000000000000000000000000000000000000000000000000000000000810460278301537e01000000000000000000000000000000000000000000000000000000000000810460268301537d010000000000000000000000000000000000000000000000000000000000810460258301537c0100000000000000000000000000000000000000000000000000000000810460248301537b01000000000000000000000000000000000000000000000000000000810460238301537a0100000000000000000000000000000000000000000000000000008104602283015379010000000000000000000000000000000000000000000000000081046021830153780100000000000000000000000000000000000000000000000081046020830153506200065e8282856001600481106200046457fe5b60200201516002876000600481106200047957fe5b60200201516040518082805190602001908083835b60208310620004b357805182526020820191506020810190506020830392506200048e565b6001836020036101000a038019825116818451168082178552505050505050905001915050602060405180830381855afa158015620004f6573d6000803e3d6000fd5b5050506040513d60208110156200050c57600080fd5b8101908080519060200190929190505050876002600481106200052b57fe5b60200201516040516020018085805190602001908083835b6020831062000568578051825260208201915060208101905060208303925062000543565b6001836020036101000a03801982511681845116808217855250505050505090500184805190602001908083835b60208310620005bb578051825260208201915060208101905060208303925062000596565b6001836020036101000a03801982511681845116808217855250505050505090500183815260200182805190602001908083835b60208310620006145780518252602082019150602081019050602083039250620005ef565b6001836020036101000a0380198251168184511680821785525050505050509050019450505050506040516020818303038152906040528051906020012062000da460201b60201c565b8199505050505050505050509392505050565b60008073ffffffffffffffffffffffffffffffffffffffff16600160009054906101000a900473ffffffffffffffffffffffffffffffffffffffff1673ffffffffffffffffffffffffffffffffffffffff161480620007025750600062000700600160009054906101000a900473ffffffffffffffffffffffffffffffffffffffff1662000dc060201b60201c565b145b156200071c576200071a600062000dcb60201b60201c565b505b600160009054906101000a900473ffffffffffffffffffffffffffffffffffffffff1673ffffffffffffffffffffffffffffffffffffffff166338cc48316040518163ffffffff1660e01b8152600401602060405180830381600087803b1580156200078757600080fd5b505af11580156200079c573d6000803e3d6000fd5b505050506040513d6020811015620007b357600080fd5b810190808051906020019092919050505073ffffffffffffffffffffffffffffffffffffffff166000809054906101000a900473ffffffffffffffffffffffffffffffffffffffff1673ffffffffffffffffffffffffffffffffffffffff16146200090057600160009054906101000a900473ffffffffffffffffffffffffffffffffffffffff1673ffffffffffffffffffffffffffffffffffffffff166338cc48316040518163ffffffff1660e01b8152600401602060405180830381600087803b1580156200088357600080fd5b505af115801562000898573d6000803e3d6000fd5b505050506040513d6020811015620008af57600080fd5b81019080805190602001909291905050506000806101000a81548173ffffffffffffffffffffffffffffffffffffffff021916908373ffffffffffffffffffffffffffffffffffffffff1602179055505b6000809054906101000a900473ffffffffffffffffffffffffffffffffffffffff1673ffffffffffffffffffffffffffffffffffffffff1663abaa5f3e6040518163ffffffff1660e01b815260040160206040518083038186803b1580156200096857600080fd5b505afa1580156200097d573d6000803e3d6000fd5b505050506040513d60208110156200099457600080fd5b8101908080519060200190929190505050905090565b6060600082850190508084511015620009c257600080fd5b600086602001905060008460200190505b868860200101821015620009fd5781890151808288015250602082019150602081019050620009d3565b85935050505095945050505050565b60008073ffffffffffffffffffffffffffffffffffffffff16600160009054906101000a900473ffffffffffffffffffffffffffffffffffffffff1673ffffffffffffffffffffffffffffffffffffffff16148062000a9d5750600062000a9b600160009054906101000a900473ffffffffffffffffffffffffffffffffffffffff1662000dc060201b60201c565b145b1562000ab75762000ab5600062000dcb60201b60201c565b505b600160009054906101000a900473ffffffffffffffffffffffffffffffffffffffff1673ffffffffffffffffffffffffffffffffffffffff166338cc48316040518163ffffffff1660e01b8152600401602060405180830381600087803b15801562000b2257600080fd5b505af115801562000b37573d6000803e3d6000fd5b505050506040513d602081101562000b4e57600080fd5b810190808051906020019092919050505073ffffffffffffffffffffffffffffffffffffffff166000809054906101000a900473ffffffffffffffffffffffffffffffffffffffff1673ffffffffffffffffffffffffffffffffffffffff161462000c9b57600160009054906101000a900473ffffffffffffffffffffffffffffffffffffffff1673ffffffffffffffffffffffffffffffffffffffff166338cc48316040518163ffffffff1660e01b8152600401602060405180830381600087803b15801562000c1e57600080fd5b505af115801562000c33573d6000803e3d6000fd5b505050506040513d602081101562000c4a57600080fd5b81019080805190602001909291905050506000806101000a81548173ffffffffffffffffffffffffffffffffffffffff021916908373ffffffffffffffffffffffffffffffffffffffff1602179055505b6060600460405190808252806020026020018201604052801562000cd457816020015b606081526020019060019003908162000cbe5790505b5090508360006004811062000ce557fe5b60200201518160008151811062000cf857fe5b60200260200101819052508360016004811062000d1157fe5b60200201518160018151811062000d2457fe5b60200260200101819052508360026004811062000d3d57fe5b60200201518160028151811062000d5057fe5b60200260200101819052508360036004811062000d6957fe5b60200201518160038151811062000d7c57fe5b602002602001018190525062000d9a85828562000de460201b60201c565b9150509392505050565b8060036000848152602001908152602001600020819055505050565b6000813b9050919050565b600062000ddd6200137860201b60201c565b9050919050565b60008073ffffffffffffffffffffffffffffffffffffffff16600160009054906101000a900473ffffffffffffffffffffffffffffffffffffffff1673ffffffffffffffffffffffffffffffffffffffff16148062000e755750600062000e73600160009054906101000a900473ffffffffffffffffffffffffffffffffffffffff1662000dc060201b60201c565b145b1562000e8f5762000e8d600062000dcb60201b60201c565b505b600160009054906101000a900473ffffffffffffffffffffffffffffffffffffffff1673ffffffffffffffffffffffffffffffffffffffff166338cc48316040518163ffffffff1660e01b8152600401602060405180830381600087803b15801562000efa57600080fd5b505af115801562000f0f573d6000803e3d6000fd5b505050506040513d602081101562000f2657600080fd5b810190808051906020019092919050505073ffffffffffffffffffffffffffffffffffffffff166000809054906101000a900473ffffffffffffffffffffffffffffffffffffffff1673ffffffffffffffffffffffffffffffffffffffff16146200107357600160009054906101000a900473ffffffffffffffffffffffffffffffffffffffff1673ffffffffffffffffffffffffffffffffffffffff166338cc48316040518163ffffffff1660e01b8152600401602060405180830381600087803b15801562000ff657600080fd5b505af11580156200100b573d6000803e3d6000fd5b505050506040513d60208110156200102257600080fd5b81019080805190602001909291905050506000806101000a81548173ffffffffffffffffffffffffffffffffffffffff021916908373ffffffffffffffffffffffffffffffffffffffff1602179055505b60008060009054906101000a900473ffffffffffffffffffffffffffffffffffffffff1673ffffffffffffffffffffffffffffffffffffffff16632ef3accc86856040518363ffffffff1660e01b81526004018080602001838152602001828103825284818151815260200191508051906020019080838360005b838110156200110b578082015181840152602081019050620010ee565b50505050905090810190601f168015620011395780820380516001836020036101000a031916815260200191505b509350505050602060405180830381600087803b1580156200115a57600080fd5b505af11580156200116f573d6000803e3d6000fd5b505050506040513d60208110156200118657600080fd5b81019080805190602001909291905050509050823a02670de0b6b3a764000001811115620011bb576000801b91505062001371565b6060620011ce856200194760201b60201c565b90506000809054906101000a900473ffffffffffffffffffffffffffffffffffffffff1673ffffffffffffffffffffffffffffffffffffffff1663c55c1cb68360008985896040518663ffffffff1660e01b8152600401808581526020018060200180602001848152602001838103835286818151815260200191508051906020019080838360005b838110156200127457808201518184015260208101905062001257565b50505050905090810190601f168015620012a25780820380516001836020036101000a031916815260200191505b50838103825285818151815260200191508051906020019080838360005b83811015620012dd578082015181840152602081019050620012c0565b50505050905090810190601f1680156200130b5780820380516001836020036101000a031916815260200191505b5096505050505050506020604051808303818588803b1580156200132e57600080fd5b505af115801562001343573d6000803e3d6000fd5b50505050506040513d60208110156200135b57600080fd5b8101908080519060200190929190505050925050505b9392505050565b600080620013a0731d3b2638a7cc9f2cb3d298a3da7a90b67e5506ed62000dc060201b60201c565b11156200144c57731d3b2638a7cc9f2cb3d298a3da7a90b67e5506ed600160006101000a81548173ffffffffffffffffffffffffffffffffffffffff021916908373ffffffffffffffffffffffffffffffffffffffff160217905550620014426040518060400160405280600b81526020017f6574685f6d61696e6e657400000000000000000000000000000000000000000081525062001a0260201b60201c565b6001905062001944565b60006200147373c03a2615d5efaf5f49f60b7bb6583eaec212fdf162000dc060201b60201c565b11156200151f5773c03a2615d5efaf5f49f60b7bb6583eaec212fdf1600160006101000a81548173ffffffffffffffffffffffffffffffffffffffff021916908373ffffffffffffffffffffffffffffffffffffffff160217905550620015156040518060400160405280600c81526020017f6574685f726f707374656e33000000000000000000000000000000000000000081525062001a0260201b60201c565b6001905062001944565b60006200154673b7a07bcf2ba2f2703b24c0691b5278999c59ac7e62000dc060201b60201c565b1115620015f25773b7a07bcf2ba2f2703b24c0691b5278999c59ac7e600160006101000a81548173ffffffffffffffffffffffffffffffffffffffff021916908373ffffffffffffffffffffffffffffffffffffffff160217905550620015e86040518060400160405280600981526020017f6574685f6b6f76616e000000000000000000000000000000000000000000000081525062001a0260201b60201c565b6001905062001944565b60006200161973146500cfd35b22e4a392fe0adc06de1a1368ed4862000dc060201b60201c565b1115620016c55773146500cfd35b22e4a392fe0adc06de1a1368ed48600160006101000a81548173ffffffffffffffffffffffffffffffffffffffff021916908373ffffffffffffffffffffffffffffffffffffffff160217905550620016bb6040518060400160405280600b81526020017f6574685f72696e6b65627900000000000000000000000000000000000000000081525062001a0260201b60201c565b6001905062001944565b6000620016ec73a2998efd205fb9d4b4963afb70778d6354ad3a4162000dc060201b60201c565b1115620017985773a2998efd205fb9d4b4963afb70778d6354ad3a41600160006101000a81548173ffffffffffffffffffffffffffffffffffffffff021916908373ffffffffffffffffffffffffffffffffffffffff1602179055506200178e6040518060400160405280600a81526020017f6574685f676f65726c690000000000000000000000000000000000000000000081525062001a0260201b60201c565b6001905062001944565b6000620017bf736f485c8bf6fc43ea212e93bbf8ce046c7f1cb47562000dc060201b60201c565b11156200182557736f485c8bf6fc43ea212e93bbf8ce046c7f1cb475600160006101000a81548173ffffffffffffffffffffffffffffffffffffffff021916908373ffffffffffffffffffffffffffffffffffffffff1602179055506001905062001944565b60006200184c7320e12a1f859b3feae5fb2a0a32c18f5a65555bbf62000dc060201b60201c565b1115620018b2577320e12a1f859b3feae5fb2a0a32c18f5a65555bbf600160006101000a81548173ffffffffffffffffffffffffffffffffffffffff021916908373ffffffffffffffffffffffffffffffffffffffff1602179055506001905062001944565b6000620018d97351efaf4c8b3c9afbd5ab9f4bbc82784ab6ef8faa62000dc060201b60201c565b11156200193f577351efaf4c8b3c9afbd5ab9f4bbc82784ab6ef8faa600160006101000a81548173ffffffffffffffffffffffffffffffffffffffff021916908373ffffffffffffffffffffffffffffffffffffffff1602179055506001905062001944565b600090505b90565b60606200195962001a1e60201b60201c565b6200196362001e83565b6200197c8161040062001a2a60201b620021001760201c565b620019928162001a7760201b6200214a1760201c565b60008090505b8351811015620019de57620019d0848281518110620019b357fe5b60200260200101518362001a8d60201b620021581790919060201c565b808060010191505062001998565b50620019f58162001ac160201b6200217d1760201c565b8060000151915050919050565b806002908051906020019062001a1a92919062001e9d565b5050565b60405180590338823950565b600081905060006020828162001a3c57fe5b061462001a57576020818162001a4e57fe5b06602003810190505b808360200181815250506040518084526000815281810160405250505050565b62001a8a81600462001ad760201b60201c565b50565b62001aa2826002835162001aff60201b60201c565b62001abc818362001c8760201b620022ec1790919060201c565b505050565b62001ad481600762001ad760201b60201c565b50565b62001afb601f60058360ff16901b178362001d4760201b620023971790919060201c565b5050565b6017811162001b345762001b2e8160058460ff16901b60ff16178462001d4760201b620023971790919060201c565b62001c82565b60ff811162001b855762001b61601860058460ff16901b178462001d4760201b620023971790919060201c565b62001b7e8160018562001d9060201b620023d7179092919060201c565b5062001c81565b61ffff811162001bd75762001bb3601960058460ff16901b178462001d4760201b620023971790919060201c565b62001bd08160028562001d9060201b620023d7179092919060201c565b5062001c80565b63ffffffff811162001c2b5762001c07601a60058460ff16901b178462001d4760201b620023971790919060201c565b62001c248160048562001d9060201b620023d7179092919060201c565b5062001c7f565b67ffffffffffffffff811162001c7e5762001c5f601b60058460ff16901b178462001d4760201b620023971790919060201c565b62001c7c8160088562001d9060201b620023d7179092919060201c565b505b5b5b5b5b505050565b62001c9162001e83565b8260200151836000015151835101111562001cd25762001cd183600262001cc48660200151865162001e0a60201b60201c565b0262001e2860201b60201c565b5b60008060008451905085518051602081830101945086518101825260208701935050505b6020811062001d1b578151835260208301925060208201915060208103905062001cf6565b60006001826020036101000a039050801983511681855116818117865250508694505050505092915050565b8160200151600183600001515101111562001d765762001d7582600284602001510262001e2860201b60201c565b5b815180516020818301018381536001820183525050505050565b62001d9a62001e83565b83602001518460000151518301111562001dd95762001dd884600262001dcb87602001518662001e0a60201b60201c565b0262001e2860201b60201c565b5b60006001836101000a0390508451805184818301018684198251161781528582018352505050849150509392505050565b60008183111562001e1e5782905062001e22565b8190505b92915050565b60608260000151905062001e43838362001a2a60201b60201c565b62001e55838262001c8760201b60201c565b50505050565b60405180608001604052806004905b606081526020019060019003908162001e6a5790505090565b604051806040016040528060608152602001600081525090565b828054600181600116156101000203166002900490600052602060002090601f016020900481019282601f1062001ee057805160ff191683800117855562001f11565b8280016001018555821562001f11579182015b8281111562001f1057825182559160200191906001019062001ef3565b5b50905062001f20919062001f24565b5090565b62001f4991905b8082111562001f4557600081600090555060010162001f2b565b5090565b90565b6125cd8062001f5c6000396000f3fe60806040526004361061004a5760003560e01c806327dc297e1461004f57806338bbfa5014610121578063a2e620451461028a578063dc34b0aa14610294578063fbddd14b146102bf575b600080fd5b34801561005b57600080fd5b5061011f6004803603604081101561007257600080fd5b81019080803590602001909291908035906020019064010000000081111561009957600080fd5b8201836020820111156100ab57600080fd5b803590602001918460018302840111640100000000831117156100cd57600080fd5b91908080601f016020809104026020016040519081016040528093929190818152602001838380828437600081840152601f19601f8201169050808301925050505050505091929192905050506102ea565b005b34801561012d57600080fd5b506102886004803603606081101561014457600080fd5b81019080803590602001909291908035906020019064010000000081111561016b57600080fd5b82018360208201111561017d57600080fd5b8035906020019184600183028401116401000000008311171561019f57600080fd5b91908080601f016020809104026020016040519081016040528093929190818152602001838380828437600081840152601f19601f8201169050808301925050505050505091929192908035906020019064010000000081111561020257600080fd5b82018360208201111561021457600080fd5b8035906020019184600183028401116401000000008311171561023657600080fd5b91908080601f016020809104026020016040519081016040528093929190818152602001838380828437600081840152601f19601f82011690508083019250505050505050919291929050505061032d565b005b61029261049c565b005b3480156102a057600080fd5b506102a9610509565b6040518082815260200191505060405180910390f35b3480156102cb57600080fd5b506102d461050f565b6040518082815260200191505060405180910390f35b610329828260006040519080825280601f01601f1916602001820160405280156103235781602001600182028038833980820191505090505b5061032d565b5050565b6103356105c6565b73ffffffffffffffffffffffffffffffffffffffff163373ffffffffffffffffffffffffffffffffffffffff16146103d5576040517f08c379a00000000000000000000000000000000000000000000000000000000081526004018080602001828103825260058152602001807f4572726f7200000000000000000000000000000000000000000000000000000081525060200191505060405180910390fd5b60006002836040516020018082805190602001908083835b6020831061041057805182526020820191506020810190506020830392506103ed565b6001836020036101000a0380198251168184511680821785525050505050509050019150506040516020818303038152906040528051906020012060001c8161045557fe5b069050806005819055507fc13d60fe9dffdb6908d2d446cd18134373a51db0738ee04f296eeb9128121cbc816040518082815260200191505060405180910390a150505050565b6000809050600062030d40905060006104b7836001846108e5565b90507fc4dc360d0a9c0677a3379ae0a3d81e887f761e65fdf3d7e00859d1bcd3c473896040518080602001828103825260348152602001806125646034913960400191505060405180910390a1505050565b60055481565b60008060405180807f74657374000000000000000000000000000000000000000000000000000000008152506004019050604051809103902090506105bf816040518060400160405280600181526020017f31000000000000000000000000000000000000000000000000000000000000008152506040518060400160405280600481526020017f746573740000000000000000000000000000000000000000000000000000000081525061032d565b8091505090565b60008073ffffffffffffffffffffffffffffffffffffffff16600160009054906101000a900473ffffffffffffffffffffffffffffffffffffffff1673ffffffffffffffffffffffffffffffffffffffff16148061064e5750600061064c600160009054906101000a900473ffffffffffffffffffffffffffffffffffffffff16610e80565b145b1561065f5761065d6000610e8b565b505b600160009054906101000a900473ffffffffffffffffffffffffffffffffffffffff1673ffffffffffffffffffffffffffffffffffffffff166338cc48316040518163ffffffff1660e01b8152600401602060405180830381600087803b1580156106c957600080fd5b505af11580156106dd573d6000803e3d6000fd5b505050506040513d60208110156106f357600080fd5b810190808051906020019092919050505073ffffffffffffffffffffffffffffffffffffffff166000809054906101000a900473ffffffffffffffffffffffffffffffffffffffff1673ffffffffffffffffffffffffffffffffffffffff161461083c57600160009054906101000a900473ffffffffffffffffffffffffffffffffffffffff1673ffffffffffffffffffffffffffffffffffffffff166338cc48316040518163ffffffff1660e01b8152600401602060405180830381600087803b1580156107c157600080fd5b505af11580156107d5573d6000803e3d6000fd5b505050506040513d60208110156107eb57600080fd5b81019080805190602001909291905050506000806101000a81548173ffffffffffffffffffffffffffffffffffffffff021916908373ffffffffffffffffffffffffffffffffffffffff1602179055505b6000809054906101000a900473ffffffffffffffffffffffffffffffffffffffff1673ffffffffffffffffffffffffffffffffffffffff1663c281d19e6040518163ffffffff1660e01b8152600401602060405180830381600087803b1580156108a557600080fd5b505af11580156108b9573d6000803e3d6000fd5b505050506040513d60208110156108cf57600080fd5b8101908080519060200190929190505050905090565b600080831180156108f7575060208311155b61090057600080fd5b600a84029350606060016040519080825280601f01601f19166020018201604052801561093c5781602001600182028038833980820191505090505b5090508360f81b8160008151811061095057fe5b60200101907effffffffffffffffffffffffffffffffffffffffffffffffffffffffffffff1916908160001a905350606060206040519080825280601f01601f1916602001820160405280156109b55781602001600182028038833980820191505090505b509050606060206040519080825280601f01601f1916602001820160405280156109ee5781602001600182028038833980820191505090505b50905060006109fb610e9c565b905060208352424118600143034018602084015260208252806020830152606060206040519080825280601f01601f191660200182016040528015610a4f5781602001600182028038833980820191505090505b509050886020820152606060086040519080825280601f01601f191660200182016040528015610a8e5781602001600182028038833980820191505090505b509050610aa182601860088460006111b9565b50610aaa61247d565b60405180608001604052808781526020018881526020018681526020018481525090506000610b0f6040518060400160405280600681526020017f72616e646f6d0000000000000000000000000000000000000000000000000000815250838c611218565b9050606060086040519080825280601f01601f191660200182016040528015610b475781602001600182028038833980820191505090505b50905060208401517f0100000000000000000000000000000000000000000000000000000000000000810460278301537e01000000000000000000000000000000000000000000000000000000000000810460268301537d010000000000000000000000000000000000000000000000000000000000810460258301537c0100000000000000000000000000000000000000000000000000000000810460248301537b01000000000000000000000000000000000000000000000000000000810460238301537a010000000000000000000000000000000000000000000000000000810460228301537901000000000000000000000000000000000000000000000000008104602183015378010000000000000000000000000000000000000000000000008104602083015350610e6d828285600160048110610c8657fe5b6020020151600287600060048110610c9a57fe5b60200201516040518082805190602001908083835b60208310610cd25780518252602082019150602081019050602083039250610caf565b6001836020036101000a038019825116818451168082178552505050505050905001915050602060405180830381855afa158015610d14573d6000803e3d6000fd5b5050506040513d6020811015610d2957600080fd5b810190808051906020019092919050505087600260048110610d4757fe5b60200201516040516020018085805190602001908083835b60208310610d825780518252602082019150602081019050602083039250610d5f565b6001836020036101000a03801982511681845116808217855250505050505090500184805190602001908083835b60208310610dd35780518252602082019150602081019050602083039250610db0565b6001836020036101000a03801982511681845116808217855250505050505090500183815260200182805190602001908083835b60208310610e2a5780518252602082019150602081019050602083039250610e07565b6001836020036101000a03801982511681845116808217855250505050505090500194505050505060405160208183030381529060405280519060200120611585565b8199505050505050505050509392505050565b6000813b9050919050565b6000610e956115a1565b9050919050565b60008073ffffffffffffffffffffffffffffffffffffffff16600160009054906101000a900473ffffffffffffffffffffffffffffffffffffffff1673ffffffffffffffffffffffffffffffffffffffff161480610f2457506000610f22600160009054906101000a900473ffffffffffffffffffffffffffffffffffffffff16610e80565b145b15610f3557610f336000610e8b565b505b600160009054906101000a900473ffffffffffffffffffffffffffffffffffffffff1673ffffffffffffffffffffffffffffffffffffffff166338cc48316040518163ffffffff1660e01b8152600401602060405180830381600087803b158015610f9f57600080fd5b505af1158015610fb3573d6000803e3d6000fd5b505050506040513d6020811015610fc957600080fd5b810190808051906020019092919050505073ffffffffffffffffffffffffffffffffffffffff166000809054906101000a900473ffffffffffffffffffffffffffffffffffffffff1673ffffffffffffffffffffffffffffffffffffffff161461111257600160009054906101000a900473ffffffffffffffffffffffffffffffffffffffff1673ffffffffffffffffffffffffffffffffffffffff166338cc48316040518163ffffffff1660e01b8152600401602060405180830381600087803b15801561109757600080fd5b505af11580156110ab573d6000803e3d6000fd5b505050506040513d60208110156110c157600080fd5b81019080805190602001909291905050506000806101000a81548173ffffffffffffffffffffffffffffffffffffffff021916908373ffffffffffffffffffffffffffffffffffffffff1602179055505b6000809054906101000a900473ffffffffffffffffffffffffffffffffffffffff1673ffffffffffffffffffffffffffffffffffffffff1663abaa5f3e6040518163ffffffff1660e01b815260040160206040518083038186803b15801561117957600080fd5b505afa15801561118d573d6000803e3d6000fd5b505050506040513d60208110156111a357600080fd5b8101908080519060200190929190505050905090565b60606000828501905080845110156111d057600080fd5b600086602001905060008460200190505b86886020010182101561120957818901518082880152506020820191506020810190506111e1565b85935050505095945050505050565b60008073ffffffffffffffffffffffffffffffffffffffff16600160009054906101000a900473ffffffffffffffffffffffffffffffffffffffff1673ffffffffffffffffffffffffffffffffffffffff1614806112a05750600061129e600160009054906101000a900473ffffffffffffffffffffffffffffffffffffffff16610e80565b145b156112b1576112af6000610e8b565b505b600160009054906101000a900473ffffffffffffffffffffffffffffffffffffffff1673ffffffffffffffffffffffffffffffffffffffff166338cc48316040518163ffffffff1660e01b8152600401602060405180830381600087803b15801561131b57600080fd5b505af115801561132f573d6000803e3d6000fd5b505050506040513d602081101561134557600080fd5b810190808051906020019092919050505073ffffffffffffffffffffffffffffffffffffffff166000809054906101000a900473ffffffffffffffffffffffffffffffffffffffff1673ffffffffffffffffffffffffffffffffffffffff161461148e57600160009054906101000a900473ffffffffffffffffffffffffffffffffffffffff1673ffffffffffffffffffffffffffffffffffffffff166338cc48316040518163ffffffff1660e01b8152600401602060405180830381600087803b15801561141357600080fd5b505af1158015611427573d6000803e3d6000fd5b505050506040513d602081101561143d57600080fd5b81019080805190602001909291905050506000806101000a81548173ffffffffffffffffffffffffffffffffffffffff021916908373ffffffffffffffffffffffffffffffffffffffff1602179055505b606060046040519080825280602002602001820160405280156114c557816020015b60608152602001906001900390816114b05790505b509050836000600481106114d557fe5b6020020151816000815181106114e757fe5b6020026020010181905250836001600481106114ff57fe5b60200201518160018151811061151157fe5b60200260200101819052508360026004811061152957fe5b60200201518160028151811061153b57fe5b60200260200101819052508360036004811061155357fe5b60200201518160038151811061156557fe5b602002602001018190525061157b858285611af8565b9150509392505050565b8060036000848152602001908152602001600020819055505050565b6000806115c1731d3b2638a7cc9f2cb3d298a3da7a90b67e5506ed610e80565b111561166357731d3b2638a7cc9f2cb3d298a3da7a90b67e5506ed600160006101000a81548173ffffffffffffffffffffffffffffffffffffffff021916908373ffffffffffffffffffffffffffffffffffffffff16021790555061165a6040518060400160405280600b81526020017f6574685f6d61696e6e657400000000000000000000000000000000000000000081525061205a565b60019050611af5565b600061168273c03a2615d5efaf5f49f60b7bb6583eaec212fdf1610e80565b11156117245773c03a2615d5efaf5f49f60b7bb6583eaec212fdf1600160006101000a81548173ffffffffffffffffffffffffffffffffffffffff021916908373ffffffffffffffffffffffffffffffffffffffff16021790555061171b6040518060400160405280600c81526020017f6574685f726f707374656e33000000000000000000000000000000000000000081525061205a565b60019050611af5565b600061174373b7a07bcf2ba2f2703b24c0691b5278999c59ac7e610e80565b11156117e55773b7a07bcf2ba2f2703b24c0691b5278999c59ac7e600160006101000a81548173ffffffffffffffffffffffffffffffffffffffff021916908373ffffffffffffffffffffffffffffffffffffffff1602179055506117dc6040518060400160405280600981526020017f6574685f6b6f76616e000000000000000000000000000000000000000000000081525061205a565b60019050611af5565b600061180473146500cfd35b22e4a392fe0adc06de1a1368ed48610e80565b11156118a65773146500cfd35b22e4a392fe0adc06de1a1368ed48600160006101000a81548173ffffffffffffffffffffffffffffffffffffffff021916908373ffffffffffffffffffffffffffffffffffffffff16021790555061189d6040518060400160405280600b81526020017f6574685f72696e6b65627900000000000000000000000000000000000000000081525061205a565b60019050611af5565b60006118c573a2998efd205fb9d4b4963afb70778d6354ad3a41610e80565b11156119675773a2998efd205fb9d4b4963afb70778d6354ad3a41600160006101000a81548173ffffffffffffffffffffffffffffffffffffffff021916908373ffffffffffffffffffffffffffffffffffffffff16021790555061195e6040518060400160405280600a81526020017f6574685f676f65726c690000000000000000000000000000000000000000000081525061205a565b60019050611af5565b6000611986736f485c8bf6fc43ea212e93bbf8ce046c7f1cb475610e80565b11156119ea57736f485c8bf6fc43ea212e93bbf8ce046c7f1cb475600160006101000a81548173ffffffffffffffffffffffffffffffffffffffff021916908373ffffffffffffffffffffffffffffffffffffffff16021790555060019050611af5565b6000611a097320e12a1f859b3feae5fb2a0a32c18f5a65555bbf610e80565b1115611a6d577320e12a1f859b3feae5fb2a0a32c18f5a65555bbf600160006101000a81548173ffffffffffffffffffffffffffffffffffffffff021916908373ffffffffffffffffffffffffffffffffffffffff16021790555060019050611af5565b6000611a8c7351efaf4c8b3c9afbd5ab9f4bbc82784ab6ef8faa610e80565b1115611af0577351efaf4c8b3c9afbd5ab9f4bbc82784ab6ef8faa600160006101000a81548173ffffffffffffffffffffffffffffffffffffffff021916908373ffffffffffffffffffffffffffffffffffffffff16021790555060019050611af5565b600090505b90565b60008073ffffffffffffffffffffffffffffffffffffffff16600160009054906101000a900473ffffffffffffffffffffffffffffffffffffffff1673ffffffffffffffffffffffffffffffffffffffff161480611b8057506000611b7e600160009054906101000a900473ffffffffffffffffffffffffffffffffffffffff16610e80565b145b15611b9157611b8f6000610e8b565b505b600160009054906101000a900473ffffffffffffffffffffffffffffffffffffffff1673ffffffffffffffffffffffffffffffffffffffff166338cc48316040518163ffffffff1660e01b8152600401602060405180830381600087803b158015611bfb57600080fd5b505af1158015611c0f573d6000803e3d6000fd5b505050506040513d6020811015611c2557600080fd5b810190808051906020019092919050505073ffffffffffffffffffffffffffffffffffffffff166000809054906101000a900473ffffffffffffffffffffffffffffffffffffffff1673ffffffffffffffffffffffffffffffffffffffff1614611d6e57600160009054906101000a900473ffffffffffffffffffffffffffffffffffffffff1673ffffffffffffffffffffffffffffffffffffffff166338cc48316040518163ffffffff1660e01b8152600401602060405180830381600087803b158015611cf357600080fd5b505af1158015611d07573d6000803e3d6000fd5b505050506040513d6020811015611d1d57600080fd5b81019080805190602001909291905050506000806101000a81548173ffffffffffffffffffffffffffffffffffffffff021916908373ffffffffffffffffffffffffffffffffffffffff1602179055505b60008060009054906101000a900473ffffffffffffffffffffffffffffffffffffffff1673ffffffffffffffffffffffffffffffffffffffff16632ef3accc86856040518363ffffffff1660e01b81526004018080602001838152602001828103825284818151815260200191508051906020019080838360005b83811015611e04578082015181840152602081019050611de9565b50505050905090810190601f168015611e315780820380516001836020036101000a031916815260200191505b509350505050602060405180830381600087803b158015611e5157600080fd5b505af1158015611e65573d6000803e3d6000fd5b505050506040513d6020811015611e7b57600080fd5b81019080805190602001909291905050509050823a02670de0b6b3a764000001811115611eae576000801b915050612053565b6060611eb985612074565b90506000809054906101000a900473ffffffffffffffffffffffffffffffffffffffff1673ffffffffffffffffffffffffffffffffffffffff1663c55c1cb68360008985896040518663ffffffff1660e01b8152600401808581526020018060200180602001848152602001838103835286818151815260200191508051906020019080838360005b83811015611f5d578082015181840152602081019050611f42565b50505050905090810190601f168015611f8a5780820380516001836020036101000a031916815260200191505b50838103825285818151815260200191508051906020019080838360005b83811015611fc3578082015181840152602081019050611fa8565b50505050905090810190601f168015611ff05780820380516001836020036101000a031916815260200191505b5096505050505050506020604051808303818588803b15801561201257600080fd5b505af1158015612026573d6000803e3d6000fd5b50505050506040513d602081101561203d57600080fd5b8101908080519060200190929190505050925050505b9392505050565b80600290805190602001906120709291906124a4565b5050565b606061207e6120f4565b612086612524565b61209281610400612100565b61209b8161214a565b60008090505b83518110156120dd576120d08482815181106120b957fe5b60200260200101518361215890919063ffffffff16565b80806001019150506120a1565b506120e78161217d565b8060000151915050919050565b60405180590338823950565b600081905060006020828161211157fe5b061461212a576020818161212157fe5b06602003810190505b808360200181815250506040518084526000815281810160405250505050565b61215581600461218b565b50565b61216582600283516121ac565b61217881836122ec90919063ffffffff16565b505050565b61218881600761218b565b50565b6121a8601f60058360ff16901b178361239790919063ffffffff16565b5050565b601781116121d8576121d38160058460ff16901b60ff16178461239790919063ffffffff16565b6122e7565b60ff8111612219576121fd601860058460ff16901b178461239790919063ffffffff16565b612213816001856123d79092919063ffffffff16565b506122e6565b61ffff811161225b5761223f601960058460ff16901b178461239790919063ffffffff16565b612255816002856123d79092919063ffffffff16565b506122e5565b63ffffffff811161229f57612283601a60058460ff16901b178461239790919063ffffffff16565b612299816004856123d79092919063ffffffff16565b506122e4565b67ffffffffffffffff81116122e3576122cb601b60058460ff16901b178461239790919063ffffffff16565b6122e1816008856123d79092919063ffffffff16565b505b5b5b5b5b505050565b6122f4612524565b826020015183600001515183510111156123245761232383600261231d8660200151865161243e565b0261245a565b5b60008060008451905085518051602081830101945086518101825260208701935050505b6020811061236b5781518352602083019250602082019150602081039050612348565b60006001826020036101000a039050801983511681855116818117865250508694505050505092915050565b816020015160018360000151510111156123bd576123bc82600284602001510261245a565b5b815180516020818301018381536001820183525050505050565b6123df612524565b83602001518460000151518301111561240d5761240c84600261240687602001518661243e565b0261245a565b5b60006001836101000a0390508451805184818301018684198251161781528582018352505050849150509392505050565b60008183111561245057829050612454565b8190505b92915050565b60608260000151905061246d8383612100565b61247783826122ec565b50505050565b60405180608001604052806004905b606081526020019060019003908161248c5790505090565b828054600181600116156101000203166002900490600052602060002090601f016020900481019282601f106124e557805160ff1916838001178555612513565b82800160010185558215612513579182015b828111156125125782518255916020019190600101906124f7565b5b509050612520919061253e565b5090565b604051806040016040528060608152602001600081525090565b61256091905b8082111561255c576000816000905550600101612544565b5090565b9056fe50726f7661626c65207175657279207761732073656e742c207374616e64696e6720627920666f722074686520616e737765722ea2646970667358221220d227feac9b53ce3e421ba63db97525f3f73dc8176f2e8301ffb2cccbcab22d9464736f6c6343000602003350726f7661626c65207175657279207761732073656e742c207374616e64696e6720627920666f722074686520616e737765722e",
  "source": "pragma solidity 0.6.2;\r\nimport \"./provableAPI.sol\";\r\n\r\ncontract Random is usingProvable {\r\n\r\n    uint256 constant NUM_RANDOM_BYTES_REQUESTED = 1;\r\n    uint256 public latestNumber;\r\n\r\n    event LogNewProvableQuery(string description);\r\n    event generatedRandomNumber(uint256 randomNumber);\r\n\r\n    constructor()\r\n        public\r\n    {\r\n        update();\r\n    }\r\n    // try to map multiple games and multiple callbacks for multiple users playing games\r\n    function  __callback(bytes32 _queryId, string memory _result, bytes memory _proof) public override(usingProvable){\r\n        require(msg.sender == provable_cbAddress(),\"Error\");\r\n        //tide queryId to user\r\n        uint256 randomNumber = uint256(keccak256(abi.encodePacked(_result))) % 2;\r\n        latestNumber = randomNumber;\r\n        emit generatedRandomNumber(randomNumber);\r\n    }\r\n\r\n    function update()\r\n        public\r\n        payable\r\n    {\r\n        uint256 QUERY_EXECUTION_DELAY = 0;\r\n        uint256 GAS_FOR_CALLBACK = 200000;\r\n        //unique id save it\r\n        bytes32 queryId = provable_newRandomDSQuery(\r\n            QUERY_EXECUTION_DELAY,\r\n            NUM_RANDOM_BYTES_REQUESTED,\r\n            GAS_FOR_CALLBACK\r\n        );\r\n        emit LogNewProvableQuery(\"Provable query was sent, standing by for the answer.\");\r\n    }\r\n\r\n    function testRandom() public returns (bytes32){\r\n        //   bytes32 queryId = bytes32(keccak256(abi.encodePacked(msg.sender)));\r\n        bytes32 queryId = bytes32(keccak256(\"test\"));\r\n        __callback(queryId, \"1\", bytes(\"test\"));\r\n        return queryId;\r\n    }\r\n}",
  "sourcePath": "C:\\Users\\Slaven\\source\\repos\\flip-coin\\contracts\\Random.sol",
  "compiler": {
    "name": "solc",
    "version": "0.6.2+commit.bacdbe57.Emscripten.clang"
  },
  "schemaVersion": "3.2.2",
  "updatedAt": "2020-07-20T14:42:04.028Z",
  "devdoc": {
    "methods": {
      "__callback(bytes32,string)": {
        "details": "The following `__callback` functions are just placeholders ideally     meant to be defined in child contract when proofs are used.     The function bodies simply silence compiler warnings."
      }
    }
  },
  "userdoc": {
    "methods": {}
  }
}